{
  "transactions": [
    {
      "hash": "0x7a747e9a82025f057649aa0eec326144c0ec0356f4a08775bbba8185b3269c24",
      "transactionType": "CALL",
      "contractName": null,
      "contractAddress": "0x431904fe789a377d166eefbae1681239c17b134b",
      "function": "setTestPrice(bytes32,int64,uint64,int32)",
      "arguments": [
        "0x78a3e3b8e676a8f73c439f5d749737034b139bbbe899ba5775216fba596607fe",
        "7784100000",
        "100000000",
        "-5"
      ],
      "transaction": {
        "from": "0xa4e02339c313bf7fc9e70d5e0c5c2bfedf1b5327",
        "to": "0x431904fe789a377d166eefbae1681239c17b134b",
        "gas": "0x11d54",
        "value": "0x0",
        "input": "0x4c3c161678a3e3b8e676a8f73c439f5d749737034b139bbbe899ba5775216fba596607fe00000000000000000000000000000000000000000000000000000001cff7f0a00000000000000000000000000000000000000000000000000000000005f5e100fffffffffffffffffffffffffffffffffffffffffffffffffffffffffffffffb",
        "nonce": "0xed2d",
        "chainId": "0x1446f"
      },
      "additionalContracts": [],
      "isFixedGasLimit": false
    },
    {
      "hash": "0x01ce628bd8836858bc886c41568dbf26f0139466b2b2cd29c71f76fb323cb820",
      "transactionType": "CALL",
      "contractName": null,
      "contractAddress": "0x431904fe789a377d166eefbae1681239c17b134b",
      "function": "setTestPrice(bytes32,int64,uint64,int32)",
      "arguments": [
        "0x49f6b65cb1de6b10eaf75e7c03ca029c306d0357e91b5311b175084a5ad55688",
        "2453900000",
        "50000000",
        "-5"
      ],
      "transaction": {
        "from": "0xa4e02339c313bf7fc9e70d5e0c5c2bfedf1b5327",
        "to": "0x431904fe789a377d166eefbae1681239c17b134b",
        "gas": "0x11d54",
        "value": "0x0",
        "input": "0x4c3c161649f6b65cb1de6b10eaf75e7c03ca029c306d0357e91b5311b175084a5ad556880000000000000000000000000000000000000000000000000000000092438ae00000000000000000000000000000000000000000000000000000000002faf080fffffffffffffffffffffffffffffffffffffffffffffffffffffffffffffffb",
        "nonce": "0xed2e",
        "chainId": "0x1446f"
      },
      "additionalContracts": [],
      "isFixedGasLimit": false
    },
    {
      "hash": "0xfa0018bd334c751de2e6663b1077b4a31709422d0593540b55aec3dfab988968",
      "transactionType": "CALL",
      "contractName": null,
      "contractAddress": "0x431904fe789a377d166eefbae1681239c17b134b",
      "function": "setTestPrice(bytes32,int64,uint64,int32)",
      "arguments": [
        "0xb5d0e0fa58a1f8b81498ae670ce93c872d14434b72c364885d4fa1b257cbb07a",
        "2315300000",
        "50000000",
        "-5"
      ],
      "transaction": {
        "from": "0xa4e02339c313bf7fc9e70d5e0c5c2bfedf1b5327",
        "to": "0x431904fe789a377d166eefbae1681239c17b134b",
        "gas": "0x10d68",
        "value": "0x0",
        "input": "0x4c3c1616b5d0e0fa58a1f8b81498ae670ce93c872d14434b72c364885d4fa1b257cbb07a000000000000000000000000000000000000000000000000000000008a00aca00000000000000000000000000000000000000000000000000000000002faf080fffffffffffffffffffffffffffffffffffffffffffffffffffffffffffffffb",
        "nonce": "0xed2f",
        "chainId": "0x1446f"
      },
      "additionalContracts": [],
      "isFixedGasLimit": false
    },
    {
      "hash": "0x5cd574695aefd9b54ceb661322534b024b890390a4aa9cfcb653d0a4c2db3481",
      "transactionType": "CALL",
      "contractName": null,
      "contractAddress": "0x431904fe789a377d166eefbae1681239c17b134b",
      "function": "setTestPrice(bytes32,int64,uint64,int32)",
      "arguments": [
        "0xb1073854ed24cbc755dc527418f52b7d271f6cc967bbf8d8129112b18860a593",
        "1766400000",
        "50000000",
        "-5"
      ],
      "transaction": {
        "from": "0xa4e02339c313bf7fc9e70d5e0c5c2bfedf1b5327",
        "to": "0x431904fe789a377d166eefbae1681239c17b134b",
        "gas": "0x10d68",
        "value": "0x0",
        "input": "0x4c3c1616b1073854ed24cbc755dc527418f52b7d271f6cc967bbf8d8129112b18860a59300000000000000000000000000000000000000000000000000000000694920000000000000000000000000000000000000000000000000000000000002faf080fffffffffffffffffffffffffffffffffffffffffffffffffffffffffffffffb",
        "nonce": "0xed30",
        "chainId": "0x1446f"
      },
      "additionalContracts": [],
      "isFixedGasLimit": false
    },
    {
      "hash": "0xd82d13cc14c5cb29bb02561f9bfc455274a65941a39b4b6d107bf62ea2948be3",
      "transactionType": "CALL",
      "contractName": null,
      "contractAddress": "0x431904fe789a377d166eefbae1681239c17b134b",
      "function": "setTestPrice(bytes32,int64,uint64,int32)",
      "arguments": [
        "0x5a48c03e9b9cb337801073ed9d166817473697efff0d138874e0f6a33d6d5aa6",
        "2546500000",
        "50000000",
        "-5"
      ],
      "transaction": {
        "from": "0xa4e02339c313bf7fc9e70d5e0c5c2bfedf1b5327",
        "to": "0x431904fe789a377d166eefbae1681239c17b134b",
        "gas": "0x11d54",
        "value": "0x0",
        "input": "0x4c3c16165a48c03e9b9cb337801073ed9d166817473697efff0d138874e0f6a33d6d5aa60000000000000000000000000000000000000000000000000000000097c881a00000000000000000000000000000000000000000000000000000000002faf080fffffffffffffffffffffffffffffffffffffffffffffffffffffffffffffffb",
        "nonce": "0xed31",
        "chainId": "0x1446f"
      },
      "additionalContracts": [],
      "isFixedGasLimit": false
    }
  ],
  "receipts": [
    {
      "status": "0x1",
      "cumulativeGasUsed": "0xc319",
      "logs": [
        {
          "address": "0x431904fe789a377d166eefbae1681239c17b134b",
          "topics": [
            "0xd06a6b7f4918494b3719217d1802786c1f5112a6c1d88fe2cfec00b4584f6aec",
            "0x78a3e3b8e676a8f73c439f5d749737034b139bbbe899ba5775216fba596607fe"
          ],
          "data": "0x0000000000000000000000000000000000000000000000000000000068ce2ba800000000000000000000000000000000000000000000000000000001cff7f0a00000000000000000000000000000000000000000000000000000000005f5e100",
          "blockHash": "0x0431cdcc6d0c534a65c3d772564c2e1e49775dc49fccf9cc4c3d87ee8965b32f",
          "blockNumber": "0xcb25",
          "transactionHash": "0x7a747e9a82025f057649aa0eec326144c0ec0356f4a08775bbba8185b3269c24",
          "transactionIndex": "0x0",
          "logIndex": "0x0",
          "removed": false
        }
      ],
      "logsBloom": "0x00000000000000000000002000000000000000000000000000001000000000000000000000000000000000000002000000000000000000000000000000000000000000000000000000000000000000000000000000000000080000000002000000000000000000000000000000000000000000000000000000000000000000000000000000000000000000000000000000000000000000000000000000000000000000000000000000000000000000000000002000000001000000000000000000000000000000000000000000000000000000000000000000000000000000000000000000000000000000000000000000000000000001000001000000000000",
      "type": "0x2",
      "transactionHash": "0x7a747e9a82025f057649aa0eec326144c0ec0356f4a08775bbba8185b3269c24",
      "transactionIndex": "0x0",
      "blockHash": "0x0431cdcc6d0c534a65c3d772564c2e1e49775dc49fccf9cc4c3d87ee8965b32f",
      "blockNumber": "0xcb25",
      "gasUsed": "0xc319",
      "effectiveGasPrice": "0x6fc23ac01",
      "from": "0xa4e02339c313bf7fc9e70d5e0c5c2bfedf1b5327",
      "to": "0x431904fe789a377d166eefbae1681239c17b134b",
      "contractAddress": null
    },
    {
      "status": "0x1",
      "cumulativeGasUsed": "0x18632",
      "logs": [
        {
          "address": "0x431904fe789a377d166eefbae1681239c17b134b",
          "topics": [
            "0xd06a6b7f4918494b3719217d1802786c1f5112a6c1d88fe2cfec00b4584f6aec",
            "0x49f6b65cb1de6b10eaf75e7c03ca029c306d0357e91b5311b175084a5ad55688"
          ],
          "data": "0x0000000000000000000000000000000000000000000000000000000068ce2ba80000000000000000000000000000000000000000000000000000000092438ae00000000000000000000000000000000000000000000000000000000002faf080",
          "blockHash": "0x0431cdcc6d0c534a65c3d772564c2e1e49775dc49fccf9cc4c3d87ee8965b32f",
          "blockNumber": "0xcb25",
          "transactionHash": "0x01ce628bd8836858bc886c41568dbf26f0139466b2b2cd29c71f76fb323cb820",
          "transactionIndex": "0x1",
          "logIndex": "0x1",
          "removed": false
        }
      ],
      "logsBloom": "0x00000000000000000000002000000000000000000000000000001000000000000000000000000000000000000002008000000000000000000000000000000000000000000000000000000080000000000000000000000000080000000002000000000000000000000000000000000000000000000000000000000000000000000000000000000000000000000000000000000010000000000000000000000000000000000000000000000000000000000000000000000001000000000000000000000000000000000000000000000000000000000000000000000000000000000000000000000000000000000000000000000000000000000000000000000000",
      "type": "0x2",
      "transactionHash": "0x01ce628bd8836858bc886c41568dbf26f0139466b2b2cd29c71f76fb323cb820",
      "transactionIndex": "0x1",
      "blockHash": "0x0431cdcc6d0c534a65c3d772564c2e1e49775dc49fccf9cc4c3d87ee8965b32f",
      "blockNumber": "0xcb25",
      "gasUsed": "0xc319",
      "effectiveGasPrice": "0x6fc23ac01",
      "from": "0xa4e02339c313bf7fc9e70d5e0c5c2bfedf1b5327",
      "to": "0x431904fe789a377d166eefbae1681239c17b134b",
      "contractAddress": null
    },
    {
      "status": "0x1",
      "cumulativeGasUsed": "0x2493f",
      "logs": [
        {
          "address": "0x431904fe789a377d166eefbae1681239c17b134b",
          "topics": [
            "0xd06a6b7f4918494b3719217d1802786c1f5112a6c1d88fe2cfec00b4584f6aec",
            "0xb5d0e0fa58a1f8b81498ae670ce93c872d14434b72c364885d4fa1b257cbb07a"
          ],
          "data": "0x0000000000000000000000000000000000000000000000000000000068ce2ba8000000000000000000000000000000000000000000000000000000008a00aca00000000000000000000000000000000000000000000000000000000002faf080",
          "blockHash": "0x0431cdcc6d0c534a65c3d772564c2e1e49775dc49fccf9cc4c3d87ee8965b32f",
          "blockNumber": "0xcb25",
          "transactionHash": "0xfa0018bd334c751de2e6663b1077b4a31709422d0593540b55aec3dfab988968",
          "transactionIndex": "0x2",
          "logIndex": "0x2",
          "removed": false
        }
      ],
      "logsBloom": "0x00000000000000000000002000000000000000000000000000001000000000000000000000000000000000000002000000000000000000000000000000000000000000000000000000000000000008000000000000000000080000000002000000000000000000000000000000000000000000000000000000000000000000000000000000000000000000000000000000000000000000000000000000000000000000000000000000000000000000000000000000000001000000000000000000000000000000000000000000000000000000000000000000000000000000000000000010002000000000000000000000000000000000000000000000000000",
      "type": "0x2",
      "transactionHash": "0xfa0018bd334c751de2e6663b1077b4a31709422d0593540b55aec3dfab988968",
      "transactionIndex": "0x2",
      "blockHash": "0x0431cdcc6d0c534a65c3d772564c2e1e49775dc49fccf9cc4c3d87ee8965b32f",
      "blockNumber": "0xcb25",
      "gasUsed": "0xc30d",
      "effectiveGasPrice": "0x6fc23ac01",
      "from": "0xa4e02339c313bf7fc9e70d5e0c5c2bfedf1b5327",
      "to": "0x431904fe789a377d166eefbae1681239c17b134b",
      "contractAddress": null
    },
    {
      "status": "0x1",
      "cumulativeGasUsed": "0x30c4c",
      "logs": [
        {
          "address": "0x431904fe789a377d166eefbae1681239c17b134b",
          "topics": [
            "0xd06a6b7f4918494b3719217d1802786c1f5112a6c1d88fe2cfec00b4584f6aec",
            "0xb1073854ed24cbc755dc527418f52b7d271f6cc967bbf8d8129112b18860a593"
          ],
          "data": "0x0000000000000000000000000000000000000000000000000000000068ce2ba800000000000000000000000000000000000000000000000000000000694920000000000000000000000000000000000000000000000000000000000002faf080",
          "blockHash": "0x0431cdcc6d0c534a65c3d772564c2e1e49775dc49fccf9cc4c3d87ee8965b32f",
          "blockNumber": "0xcb25",
          "transactionHash": "0x5cd574695aefd9b54ceb661322534b024b890390a4aa9cfcb653d0a4c2db3481",
          "transactionIndex": "0x3",
          "logIndex": "0x3",
          "removed": false
        }
      ],
      "logsBloom": "0x00000000004000000000002000000000000000000000000000001000000000000000000000000000000000000002000000000000000000000000000000000000000000000000000000000000000000000000000000000000080000000002000000000000000000000000000000000000000000000000000000000000000000000000000000000000000000000000000000000000000000000000000000000000000000000000000000000000000000000000000000040001000000000000000000000000000000000000000000000000000000000000000000000000000000000000000000000000000000000000000000000000000000000000000000000001",
      "type": "0x2",
      "transactionHash": "0x5cd574695aefd9b54ceb661322534b024b890390a4aa9cfcb653d0a4c2db3481",
      "transactionIndex": "0x3",
      "blockHash": "0x0431cdcc6d0c534a65c3d772564c2e1e49775dc49fccf9cc4c3d87ee8965b32f",
      "blockNumber": "0xcb25",
      "gasUsed": "0xc30d",
      "effectiveGasPrice": "0x6fc23ac01",
      "from": "0xa4e02339c313bf7fc9e70d5e0c5c2bfedf1b5327",
      "to": "0x431904fe789a377d166eefbae1681239c17b134b",
      "contractAddress": null
    },
    {
      "status": "0x1",
      "cumulativeGasUsed": "0x3cf65",
      "logs": [
        {
          "address": "0x431904fe789a377d166eefbae1681239c17b134b",
          "topics": [
            "0xd06a6b7f4918494b3719217d1802786c1f5112a6c1d88fe2cfec00b4584f6aec",
            "0x5a48c03e9b9cb337801073ed9d166817473697efff0d138874e0f6a33d6d5aa6"
          ],
          "data": "0x0000000000000000000000000000000000000000000000000000000068ce2ba80000000000000000000000000000000000000000000000000000000097c881a00000000000000000000000000000000000000000000000000000000002faf080",
          "blockHash": "0x0431cdcc6d0c534a65c3d772564c2e1e49775dc49fccf9cc4c3d87ee8965b32f",
          "blockNumber": "0xcb25",
          "transactionHash": "0xd82d13cc14c5cb29bb02561f9bfc455274a65941a39b4b6d107bf62ea2948be3",
          "transactionIndex": "0x4",
          "logIndex": "0x4",
          "removed": false
        }
      ],
      "logsBloom": "0x00000000000000000000002000000000000000000000000000001000000000000000000000000000000000000002000000000000000000000000000000000000000000000000000000000000000000000000000000000000080000000002000000000000000000000000000000000000200000000000000000000000000000000000000000000000000000000000000000000000000000000000000000000000000000000000000000000000000000000020000000000001000000000000000000000000000000000000000000000000000000000000000000000000000000000000000000000000000000000000000000000000000000000000000000000001",
      "type": "0x2",
      "transactionHash": "0xd82d13cc14c5cb29bb02561f9bfc455274a65941a39b4b6d107bf62ea2948be3",
      "transactionIndex": "0x4",
      "blockHash": "0x0431cdcc6d0c534a65c3d772564c2e1e49775dc49fccf9cc4c3d87ee8965b32f",
      "blockNumber": "0xcb25",
      "gasUsed": "0xc319",
      "effectiveGasPrice": "0x6fc23ac01",
      "from": "0xa4e02339c313bf7fc9e70d5e0c5c2bfedf1b5327",
      "to": "0x431904fe789a377d166eefbae1681239c17b134b",
      "contractAddress": null
    }
  ],
  "libraries": [],
  "pending": [],
  "returns": {},
  "timestamp": 1758342056735,
  "chain": 83055,
  "commit": "c02d097"
}