{
  "transactions": [
    {
      "hash": "0xd41bbb7febddf97db909456b60561bff2b617f9c6c6db476e9a83786a9aa021a",
      "transactionType": "CREATE",
      "contractName": "WorkingPyth",
      "contractAddress": "0x431904fe789a377d166eefbae1681239c17b134b",
      "function": null,
      "arguments": null,
      "transaction": {
        "from": "0xa4e02339c313bf7fc9e70d5e0c5c2bfedf1b5327",
        "gas": "0x156047",
        "value": "0x0",
        "input": "0x608060405234801561000f575f80fd5b506112958061001d5f395ff3fe60806040526004361061006f575f3560e01c8063b2ee2f011161004d578063b2ee2f0114610101578063b5ec02611461013e578063d47eed451461017a578063ef9e5e28146101b65761006f565b80634c3c1616146100735780635f3d66bc1461009b57806396834ad3146100c5575b5f80fd5b34801561007e575f80fd5b5061009960048036038101906100949190610ab7565b6101d2565b005b3480156100a6575f80fd5b506100af6101e5565b6040516100bc9190610b33565b60405180910390f35b3480156100d0575f80fd5b506100eb60048036038101906100e69190610b4c565b6101ea565b6040516100f89190610c06565b60405180910390f35b34801561010c575f80fd5b5061012760048036038101906101229190610b4c565b6102e1565b604051610135929190610c2e565b60405180910390f35b348015610149575f80fd5b50610164600480360381019061015f9190610b4c565b61037d565b6040516101719190610c6f565b60405180910390f35b348015610185575f80fd5b506101a0600480360381019061019b9190610ce9565b61039e565b6040516101ad9190610b33565b60405180910390f35b6101d060048036038101906101cb9190610ce9565b6103b7565b005b6101df848484844261045a565b50505050565b600181565b6101f261099f565b5f805f8481526020019081526020015f20600101600101541161024a576040517f08c379a000000000000000000000000000000000000000000000000000000000815260040161024190610d8e565b60405180910390fd5b5f808381526020019081526020015f206001016040518060800160405290815f82015f9054906101000a900460070b60070b60070b81526020015f820160089054906101000a900467ffffffffffffffff1667ffffffffffffffff1667ffffffffffffffff1681526020015f820160109054906101000a900460030b60030b60030b81526020016001820154815250509050919050565b5f805f805f8581526020019081526020015f20600101600101541161033b576040517f08c379a000000000000000000000000000000000000000000000000000000000815260040161033290610d8e565b60405180910390fd5b5f808481526020019081526020015f206001015f015f9054906101000a900460070b5f808581526020019081526020015f206001016001015491509150915091565b5f805f808481526020019081526020015f2060010160010154119050919050565b5f8282905060016103af9190610dd9565b905092915050565b5f8282905060016103c89190610dd9565b90508034101561040d576040517f08c379a000000000000000000000000000000000000000000000000000000000815260040161040490610e64565b60405180910390fd5b5f5b83839050811015610454576104478484838181106104305761042f610e82565b5b90506020028101906104429190610ebb565b61067d565b808060010191505061040f565b50505050565b604051806060016040528086815260200160405180608001604052808760070b81526020018667ffffffffffffffff1681526020018560030b81526020018467ffffffffffffffff16815250815260200160405180608001604052808760070b81526020018667ffffffffffffffff1681526020018560030b81526020018467ffffffffffffffff168152508152505f808781526020019081526020015f205f820151815f01556020820151816001015f820151815f015f6101000a81548167ffffffffffffffff021916908360070b67ffffffffffffffff1602179055506020820151815f0160086101000a81548167ffffffffffffffff021916908367ffffffffffffffff1602179055506040820151815f0160106101000a81548163ffffffff021916908360030b63ffffffff1602179055506060820151816001015550506040820151816003015f820151815f015f6101000a81548167ffffffffffffffff021916908360070b67ffffffffffffffff1602179055506020820151815f0160086101000a81548167ffffffffffffffff021916908367ffffffffffffffff1602179055506040820151815f0160106101000a81548163ffffffff021916908360030b63ffffffff160217905550606082015181600101555050905050847fd06a6b7f4918494b3719217d1802786c1f5112a6c1d88fe2cfec00b4584f6aec82868660405161066e93929190610f2c565b60405180910390a25050505050565b60648282905010156106c4576040517f08c379a00000000000000000000000000000000000000000000000000000000081526004016106bb90610fab565b60405180910390fd5b605060f81b82825f8181106106dc576106db610e82565b5b9050013560f81c60f81b7effffffffffffffffffffffffffffffffffffffffffffffffffffffffffffff19161480156107575750604e60f81b8282600181811061072957610728610e82565b5b9050013560f81c60f81b7effffffffffffffffffffffffffffffffffffffffffffffffffffffffffffff1916145b80156107a55750604160f81b8282600281811061077757610776610e82565b5b9050013560f81c60f81b7effffffffffffffffffffffffffffffffffffffffffffffffffffffffffffff1916145b80156107f35750605560f81b828260038181106107c5576107c4610e82565b5b9050013560f81c60f81b7effffffffffffffffffffffffffffffffffffffffffffffffffffffffffffff1916145b610832576040517f08c379a000000000000000000000000000000000000000000000000000000000815260040161082990611013565b60405180910390fd5b61083c8282610840565b5050565b5f606490505b6064838390506108569190611031565b81101561099a578282905060608261086e9190611064565b11610986575f838383906020856108859190611064565b926108929392919061109f565b9061089d91906110ef565b90505f801b8114610984575f84846020856108b89190611064565b906028866108c69190611064565b926108d39392919061109f565b906108de9190611178565b60c01c90505f85856028866108f39190611064565b906030876109019190611064565b9261090e9392919061109f565b906109199190611178565b60c01c90505f868660308761092e9190611064565b9060348861093c9190611064565b926109499392919061109f565b906109549190611201565b60e01c90505f4290505f8460070b131561097f57610975858585858561045a565b505050505061099a565b505050505b505b6020816109939190611064565b9050610846565b505050565b60405180608001604052805f60070b81526020015f67ffffffffffffffff1681526020015f60030b81526020015f81525090565b5f80fd5b5f80fd5b5f819050919050565b6109ed816109db565b81146109f7575f80fd5b50565b5f81359050610a08816109e4565b92915050565b5f8160070b9050919050565b610a2381610a0e565b8114610a2d575f80fd5b50565b5f81359050610a3e81610a1a565b92915050565b5f67ffffffffffffffff82169050919050565b610a6081610a44565b8114610a6a575f80fd5b50565b5f81359050610a7b81610a57565b92915050565b5f8160030b9050919050565b610a9681610a81565b8114610aa0575f80fd5b50565b5f81359050610ab181610a8d565b92915050565b5f805f8060808587031215610acf57610ace6109d3565b5b5f610adc878288016109fa565b9450506020610aed87828801610a30565b9350506040610afe87828801610a6d565b9250506060610b0f87828801610aa3565b91505092959194509250565b5f819050919050565b610b2d81610b1b565b82525050565b5f602082019050610b465f830184610b24565b92915050565b5f60208284031215610b6157610b606109d3565b5b5f610b6e848285016109fa565b91505092915050565b610b8081610a0e565b82525050565b610b8f81610a44565b82525050565b610b9e81610a81565b82525050565b610bad81610b1b565b82525050565b608082015f820151610bc75f850182610b77565b506020820151610bda6020850182610b86565b506040820151610bed6040850182610b95565b506060820151610c006060850182610ba4565b50505050565b5f608082019050610c195f830184610bb3565b92915050565b610c2881610a0e565b82525050565b5f604082019050610c415f830185610c1f565b610c4e6020830184610b24565b9392505050565b5f8115159050919050565b610c6981610c55565b82525050565b5f602082019050610c825f830184610c60565b92915050565b5f80fd5b5f80fd5b5f80fd5b5f8083601f840112610ca957610ca8610c88565b5b8235905067ffffffffffffffff811115610cc657610cc5610c8c565b5b602083019150836020820283011115610ce257610ce1610c90565b5b9250929050565b5f8060208385031215610cff57610cfe6109d3565b5b5f83013567ffffffffffffffff811115610d1c57610d1b6109d7565b5b610d2885828601610c94565b92509250509250929050565b5f82825260208201905092915050565b7f50726963652066656564206e6f7420666f756e640000000000000000000000005f82015250565b5f610d78601483610d34565b9150610d8382610d44565b602082019050919050565b5f6020820190508181035f830152610da581610d6c565b9050919050565b7f4e487b71000000000000000000000000000000000000000000000000000000005f52601160045260245ffd5b5f610de382610b1b565b9150610dee83610b1b565b9250828202610dfc81610b1b565b91508282048414831517610e1357610e12610dac565b5b5092915050565b7f496e73756666696369656e7420666565000000000000000000000000000000005f82015250565b5f610e4e601083610d34565b9150610e5982610e1a565b602082019050919050565b5f6020820190508181035f830152610e7b81610e42565b9050919050565b7f4e487b71000000000000000000000000000000000000000000000000000000005f52603260045260245ffd5b5f80fd5b5f80fd5b5f80fd5b5f8083356001602003843603038112610ed757610ed6610eaf565b5b80840192508235915067ffffffffffffffff821115610ef957610ef8610eb3565b5b602083019250600182023603831315610f1557610f14610eb7565b5b509250929050565b610f2681610a44565b82525050565b5f606082019050610f3f5f830186610f1d565b610f4c6020830185610c1f565b610f596040830184610f1d565b949350505050565b7f496e76616c696420564141206c656e67746800000000000000000000000000005f82015250565b5f610f95601283610d34565b9150610fa082610f61565b602082019050919050565b5f6020820190508181035f830152610fc281610f89565b9050919050565b7f496e76616c696420564141207369676e617475726500000000000000000000005f82015250565b5f610ffd601583610d34565b915061100882610fc9565b602082019050919050565b5f6020820190508181035f83015261102a81610ff1565b9050919050565b5f61103b82610b1b565b915061104683610b1b565b925082820390508181111561105e5761105d610dac565b5b92915050565b5f61106e82610b1b565b915061107983610b1b565b925082820190508082111561109157611090610dac565b5b92915050565b5f80fd5b5f80fd5b5f80858511156110b2576110b1611097565b5b838611156110c3576110c261109b565b5b6001850283019150848603905094509492505050565b5f82905092915050565b5f82821b905092915050565b5f6110fa83836110d9565b8261110581356109db565b92506020821015611145576111407fffffffffffffffffffffffffffffffffffffffffffffffffffffffffffffffff836020036008026110e3565b831692505b505092915050565b5f7fffffffffffffffff00000000000000000000000000000000000000000000000082169050919050565b5f61118383836110d9565b8261118e813561114d565b925060088210156111ce576111c97fffffffffffffffff000000000000000000000000000000000000000000000000836008036008026110e3565b831692505b505092915050565b5f7fffffffff0000000000000000000000000000000000000000000000000000000082169050919050565b5f61120c83836110d9565b8261121781356111d6565b92506004821015611257576112527fffffffff00000000000000000000000000000000000000000000000000000000836004036008026110e3565b831692505b50509291505056fea2646970667358221220abe43868893468d64bf28ed62865af3a58d95b8ebeca2cc292341ea497a89d4664736f6c63430008160033",
        "nonce": "0xeca5",
        "chainId": "0x1446f"
      },
      "additionalContracts": [],
      "isFixedGasLimit": false
    },
    {
      "hash": "0xed1f5332ea8191e8be9a043eac22252534ab69089fb416739b739c2fed1b779c",
      "transactionType": "CREATE",
      "contractName": "WorkingPriceConsumer",
      "contractAddress": "0xda342fa7e014e7f9dc9227d5896b94cb1f61c6c8",
      "function": null,
      "arguments": [
        "0x431904FE789A377d166eEFbaE1681239C17B134b"
      ],
      "transaction": {
        "from": "0xa4e02339c313bf7fc9e70d5e0c5c2bfedf1b5327",
        "gas": "0x187ddc",
        "value": "0x0",
        "input": "0x608060405234801562000010575f80fd5b50604051620015fe380380620015fe8339818101604052810190620000369190620000e1565b805f806101000a81548173ffffffffffffffffffffffffffffffffffffffff021916908373ffffffffffffffffffffffffffffffffffffffff1602179055505062000111565b5f80fd5b5f73ffffffffffffffffffffffffffffffffffffffff82169050919050565b5f620000ab8262000080565b9050919050565b620000bd816200009f565b8114620000c8575f80fd5b50565b5f81519050620000db81620000b2565b92915050565b5f60208284031215620000f957620000f86200007c565b5b5f6200010884828501620000cb565b91505092915050565b6114df806200011f5f395ff3fe608060405260043610610113575f3560e01c8063966a67091161009f578063bb53ab2a11610063578063bb53ab2a1461037c578063d47eed45146103b8578063ef9e5e28146103f4578063f683765014610410578063f98d06f01461043b57610113565b8063966a670914610294578063a30f92f9146102be578063a85a420b146102e9578063b2ee2f0114610314578063b34989d71461035157610113565b80632cbf739a116100e65780632cbf739a146101bf5780633a3610bc146101ea5780634544875b1461021557806367c9b0171461023f5780639661ce8b1461026a57610113565b806302a8170814610117578063031c5b79146101415780630d4f5b661461016b578063216fbdcb14610195575b5f80fd5b348015610122575f80fd5b5061012b610465565b6040516101389190610ea6565b60405180910390f35b34801561014c575f80fd5b5061015561048b565b6040516101629190610ea6565b60405180910390f35b348015610176575f80fd5b5061017f6104b1565b60405161018c9190610ea6565b60405180910390f35b3480156101a0575f80fd5b506101a96104d7565b6040516101b69190610ea6565b60405180910390f35b3480156101ca575f80fd5b506101d36104fd565b6040516101e1929190610ef2565b60405180910390f35b3480156101f5575f80fd5b506101fe6105bf565b60405161020c929190610ef2565b60405180910390f35b348015610220575f80fd5b50610229610681565b6040516102369190610ea6565b60405180910390f35b34801561024a575f80fd5b506102536106a7565b604051610261929190610ef2565b60405180910390f35b348015610275575f80fd5b5061027e610769565b60405161028b9190610ea6565b60405180910390f35b34801561029f575f80fd5b506102a861078f565b6040516102b59190610ea6565b60405180910390f35b3480156102c9575f80fd5b506102d26107b5565b6040516102e0929190610ef2565b60405180910390f35b3480156102f4575f80fd5b506102fd610877565b60405161030b929190610ef2565b60405180910390f35b34801561031f575f80fd5b5061033a60048036038101906103359190610f4b565b610939565b604051610348929190610ef2565b60405180910390f35b34801561035c575f80fd5b506103656109da565b604051610373929190610ef2565b60405180910390f35b348015610387575f80fd5b506103a2600480360381019061039d9190610f4b565b610a9c565b6040516103af9190610f90565b60405180910390f35b3480156103c3575f80fd5b506103de60048036038101906103d9919061100a565b610b3c565b6040516103eb9190611055565b60405180910390f35b61040e6004803603810190610409919061100a565b610bdf565b005b34801561041b575f80fd5b50610424610da9565b604051610432929190610ef2565b60405180910390f35b348015610446575f80fd5b5061044f610e6b565b60405161045c91906110e8565b60405180910390f35b7fe62df6c8b4a85fe1a67db44dc12de5db330f7ac66b72dc658afedf0f4a415b435f1b81565b7fb5d0e0fa58a1f8b81498ae670ce93c872d14434b72c364885d4fa1b257cbb07a5f1b81565b7f78a3e3b8e676a8f73c439f5d749737034b139bbbe899ba5775216fba596607fe5f1b81565b7fb1073854ed24cbc755dc527418f52b7d271f6cc967bbf8d8129112b18860a5935f1b81565b5f805f8054906101000a900473ffffffffffffffffffffffffffffffffffffffff1673ffffffffffffffffffffffffffffffffffffffff1663b2ee2f017fb1073854ed24cbc755dc527418f52b7d271f6cc967bbf8d8129112b18860a5935f1b6040518263ffffffff1660e01b81526004016105799190610ea6565b6040805180830381865afa158015610593573d5f803e3d5ffd5b505050506040513d601f19601f820116820180604052508101906105b79190611155565b915091509091565b5f805f8054906101000a900473ffffffffffffffffffffffffffffffffffffffff1673ffffffffffffffffffffffffffffffffffffffff1663b2ee2f017fe62df6c8b4a85fe1a67db44dc12de5db330f7ac66b72dc658afedf0f4a415b435f1b6040518263ffffffff1660e01b815260040161063b9190610ea6565b6040805180830381865afa158015610655573d5f803e3d5ffd5b505050506040513d601f19601f820116820180604052508101906106799190611155565b915091509091565b7f5a48c03e9b9cb337801073ed9d166817473697efff0d138874e0f6a33d6d5aa65f1b81565b5f805f8054906101000a900473ffffffffffffffffffffffffffffffffffffffff1673ffffffffffffffffffffffffffffffffffffffff1663b2ee2f017fff61491a931112ddf1bd8147cd1b641375f79f5825126d665480874634fd0ace5f1b6040518263ffffffff1660e01b81526004016107239190610ea6565b6040805180830381865afa15801561073d573d5f803e3d5ffd5b505050506040513d601f19601f820116820180604052508101906107619190611155565b915091509091565b7f49f6b65cb1de6b10eaf75e7c03ca029c306d0357e91b5311b175084a5ad556885f1b81565b7fff61491a931112ddf1bd8147cd1b641375f79f5825126d665480874634fd0ace5f1b81565b5f805f8054906101000a900473ffffffffffffffffffffffffffffffffffffffff1673ffffffffffffffffffffffffffffffffffffffff1663b2ee2f017f5a48c03e9b9cb337801073ed9d166817473697efff0d138874e0f6a33d6d5aa65f1b6040518263ffffffff1660e01b81526004016108319190610ea6565b6040805180830381865afa15801561084b573d5f803e3d5ffd5b505050506040513d601f19601f8201168201806040525081019061086f9190611155565b915091509091565b5f805f8054906101000a900473ffffffffffffffffffffffffffffffffffffffff1673ffffffffffffffffffffffffffffffffffffffff1663b2ee2f017f78a3e3b8e676a8f73c439f5d749737034b139bbbe899ba5775216fba596607fe5f1b6040518263ffffffff1660e01b81526004016108f39190610ea6565b6040805180830381865afa15801561090d573d5f803e3d5ffd5b505050506040513d601f19601f820116820180604052508101906109319190611155565b915091509091565b5f805f8054906101000a900473ffffffffffffffffffffffffffffffffffffffff1673ffffffffffffffffffffffffffffffffffffffff1663b2ee2f01846040518263ffffffff1660e01b81526004016109939190610ea6565b6040805180830381865afa1580156109ad573d5f803e3d5ffd5b505050506040513d601f19601f820116820180604052508101906109d19190611155565b91509150915091565b5f805f8054906101000a900473ffffffffffffffffffffffffffffffffffffffff1673ffffffffffffffffffffffffffffffffffffffff1663b2ee2f017fb5d0e0fa58a1f8b81498ae670ce93c872d14434b72c364885d4fa1b257cbb07a5f1b6040518263ffffffff1660e01b8152600401610a569190610ea6565b6040805180830381865afa158015610a70573d5f803e3d5ffd5b505050506040513d601f19601f82011682018060405250810190610a949190611155565b915091509091565b5f805f9054906101000a900473ffffffffffffffffffffffffffffffffffffffff1673ffffffffffffffffffffffffffffffffffffffff1663b5ec0261836040518263ffffffff1660e01b8152600401610af69190610ea6565b602060405180830381865afa158015610b11573d5f803e3d5ffd5b505050506040513d601f19601f82011682018060405250810190610b3591906111bd565b9050919050565b5f805f9054906101000a900473ffffffffffffffffffffffffffffffffffffffff1673ffffffffffffffffffffffffffffffffffffffff1663d47eed4584846040518363ffffffff1660e01b8152600401610b9892919061135e565b602060405180830381865afa158015610bb3573d5f803e3d5ffd5b505050506040513d601f19601f82011682018060405250810190610bd79190611380565b905092915050565b5f805f9054906101000a900473ffffffffffffffffffffffffffffffffffffffff1673ffffffffffffffffffffffffffffffffffffffff1663d47eed4584846040518363ffffffff1660e01b8152600401610c3b92919061135e565b602060405180830381865afa158015610c56573d5f803e3d5ffd5b505050506040513d601f19601f82011682018060405250810190610c7a9190611380565b905080341015610cbf576040517f08c379a0000000000000000000000000000000000000000000000000000000008152600401610cb69061142b565b60405180910390fd5b5f8054906101000a900473ffffffffffffffffffffffffffffffffffffffff1673ffffffffffffffffffffffffffffffffffffffff1663ef9e5e288285856040518463ffffffff1660e01b8152600401610d1a92919061135e565b5f604051808303818588803b158015610d31575f80fd5b505af1158015610d43573d5f803e3d5ffd5b50505050507fe62df6c8b4a85fe1a67db44dc12de5db330f7ac66b72dc658afedf0f4a415b435f1b7fd4f3054b943130fb15fec95aa0f9d52eb4fc14ed27ad61748b15f9fa77cb9dda5f42604051610d9c929190611482565b60405180910390a2505050565b5f805f8054906101000a900473ffffffffffffffffffffffffffffffffffffffff1673ffffffffffffffffffffffffffffffffffffffff1663b2ee2f017f49f6b65cb1de6b10eaf75e7c03ca029c306d0357e91b5311b175084a5ad556885f1b6040518263ffffffff1660e01b8152600401610e259190610ea6565b6040805180830381865afa158015610e3f573d5f803e3d5ffd5b505050506040513d601f19601f82011682018060405250810190610e639190611155565b915091509091565b5f8054906101000a900473ffffffffffffffffffffffffffffffffffffffff1681565b5f819050919050565b610ea081610e8e565b82525050565b5f602082019050610eb95f830184610e97565b92915050565b5f8160070b9050919050565b610ed481610ebf565b82525050565b5f819050919050565b610eec81610eda565b82525050565b5f604082019050610f055f830185610ecb565b610f126020830184610ee3565b9392505050565b5f80fd5b5f80fd5b610f2a81610e8e565b8114610f34575f80fd5b50565b5f81359050610f4581610f21565b92915050565b5f60208284031215610f6057610f5f610f19565b5b5f610f6d84828501610f37565b91505092915050565b5f8115159050919050565b610f8a81610f76565b82525050565b5f602082019050610fa35f830184610f81565b92915050565b5f80fd5b5f80fd5b5f80fd5b5f8083601f840112610fca57610fc9610fa9565b5b8235905067ffffffffffffffff811115610fe757610fe6610fad565b5b60208301915083602082028301111561100357611002610fb1565b5b9250929050565b5f80602083850312156110205761101f610f19565b5b5f83013567ffffffffffffffff81111561103d5761103c610f1d565b5b61104985828601610fb5565b92509250509250929050565b5f6020820190506110685f830184610ee3565b92915050565b5f73ffffffffffffffffffffffffffffffffffffffff82169050919050565b5f819050919050565b5f6110b06110ab6110a68461106e565b61108d565b61106e565b9050919050565b5f6110c182611096565b9050919050565b5f6110d2826110b7565b9050919050565b6110e2816110c8565b82525050565b5f6020820190506110fb5f8301846110d9565b92915050565b61110a81610ebf565b8114611114575f80fd5b50565b5f8151905061112581611101565b92915050565b61113481610eda565b811461113e575f80fd5b50565b5f8151905061114f8161112b565b92915050565b5f806040838503121561116b5761116a610f19565b5b5f61117885828601611117565b925050602061118985828601611141565b9150509250929050565b61119c81610f76565b81146111a6575f80fd5b50565b5f815190506111b781611193565b92915050565b5f602082840312156111d2576111d1610f19565b5b5f6111df848285016111a9565b91505092915050565b5f82825260208201905092915050565b5f819050919050565b5f82825260208201905092915050565b828183375f83830152505050565b5f601f19601f8301169050919050565b5f61123a8385611201565b9350611247838584611211565b6112508361121f565b840190509392505050565b5f61126784848461122f565b90509392505050565b5f80fd5b5f80fd5b5f80fd5b5f808335600160200384360303811261129857611297611278565b5b83810192508235915060208301925067ffffffffffffffff8211156112c0576112bf611270565b5b6001820236038313156112d6576112d5611274565b5b509250929050565b5f602082019050919050565b5f6112f583856111e8565b935083602084028501611307846111f8565b805f5b8781101561134c578484038952611321828461127c565b61132c86828461125b565b9550611337846112de565b935060208b019a50505060018101905061130a565b50829750879450505050509392505050565b5f6020820190508181035f8301526113778184866112ea565b90509392505050565b5f6020828403121561139557611394610f19565b5b5f6113a284828501611141565b91505092915050565b5f82825260208201905092915050565b7f496e73756666696369656e742066656520666f722070726963652075706461745f8201527f6500000000000000000000000000000000000000000000000000000000000000602082015250565b5f6114156021836113ab565b9150611420826113bb565b604082019050919050565b5f6020820190508181035f83015261144281611409565b9050919050565b5f819050919050565b5f61146c61146761146284611449565b61108d565b610ebf565b9050919050565b61147c81611452565b82525050565b5f6040820190506114955f830185611473565b6114a26020830184610ee3565b939250505056fea26469706673582212205dc4cb3e5c5b3eadd6610258fd5ef36eb9f3d0782542ba0a86c4844bb9b1adfa64736f6c63430008160033000000000000000000000000431904fe789a377d166eefbae1681239c17b134b",
        "nonce": "0xeca6",
        "chainId": "0x1446f"
      },
      "additionalContracts": [],
      "isFixedGasLimit": false
    },
    {
      "hash": "0xef485679bd4d1df1f873726d4e00bf060fddec654e8090c2656c97283bb9b101",
      "transactionType": "CALL",
      "contractName": "WorkingPyth",
      "contractAddress": "0x431904fe789a377d166eefbae1681239c17b134b",
      "function": "setTestPrice(bytes32,int64,uint64,int32)",
      "arguments": [
        "0xe62df6c8b4a85fe1a67db44dc12de5db330f7ac66b72dc658afedf0f4a415b43",
        "11600000000000",
        "100000000000",
        "-8"
      ],
      "transaction": {
        "from": "0xa4e02339c313bf7fc9e70d5e0c5c2bfedf1b5327",
        "to": "0x431904fe789a377d166eefbae1681239c17b134b",
        "gas": "0x315d8",
        "value": "0x0",
        "input": "0x4c3c1616e62df6c8b4a85fe1a67db44dc12de5db330f7ac66b72dc658afedf0f4a415b4300000000000000000000000000000000000000000000000000000a8cd5e12000000000000000000000000000000000000000000000000000000000174876e800fffffffffffffffffffffffffffffffffffffffffffffffffffffffffffffff8",
        "nonce": "0xeca7",
        "chainId": "0x1446f"
      },
      "additionalContracts": [],
      "isFixedGasLimit": false
    },
    {
      "hash": "0xe8daa324cf76b7a882057d0b5f4a89a42274714845b6086aba49ed3cb81d9d28",
      "transactionType": "CALL",
      "contractName": "WorkingPyth",
      "contractAddress": "0x431904fe789a377d166eefbae1681239c17b134b",
      "function": "setTestPrice(bytes32,int64,uint64,int32)",
      "arguments": [
        "0xff61491a931112ddf1bd8147cd1b641375f79f5825126d665480874634fd0ace",
        "450000000000",
        "10000000000",
        "-8"
      ],
      "transaction": {
        "from": "0xa4e02339c313bf7fc9e70d5e0c5c2bfedf1b5327",
        "to": "0x431904fe789a377d166eefbae1681239c17b134b",
        "gas": "0x2e9e6",
        "value": "0x0",
        "input": "0x4c3c1616ff61491a931112ddf1bd8147cd1b641375f79f5825126d665480874634fd0ace00000000000000000000000000000000000000000000000000000068c617140000000000000000000000000000000000000000000000000000000002540be400fffffffffffffffffffffffffffffffffffffffffffffffffffffffffffffff8",
        "nonce": "0xeca8",
        "chainId": "0x1446f"
      },
      "additionalContracts": [],
      "isFixedGasLimit": false
    },
    {
      "hash": "0xe71253edd4feb624f05e3f452725fc51812a06d747df46c24d45289a013f4d37",
      "transactionType": "CALL",
      "contractName": "WorkingPyth",
      "contractAddress": "0x431904fe789a377d166eefbae1681239c17b134b",
      "function": "setTestPrice(bytes32,int64,uint64,int32)",
      "arguments": [
        "0x78a3e3b8e676a8f73c439f5d749737034b139bbbe899ba5775216fba596607fe",
        "77800000",
        "1000000",
        "-5"
      ],
      "transaction": {
        "from": "0xa4e02339c313bf7fc9e70d5e0c5c2bfedf1b5327",
        "to": "0x431904fe789a377d166eefbae1681239c17b134b",
        "gas": "0x315b5",
        "value": "0x0",
        "input": "0x4c3c161678a3e3b8e676a8f73c439f5d749737034b139bbbe899ba5775216fba596607fe0000000000000000000000000000000000000000000000000000000004a3224000000000000000000000000000000000000000000000000000000000000f4240fffffffffffffffffffffffffffffffffffffffffffffffffffffffffffffffb",
        "nonce": "0xeca9",
        "chainId": "0x1446f"
      },
      "additionalContracts": [],
      "isFixedGasLimit": false
    },
    {
      "hash": "0x873f81392b8dda956eee59342a609bf0ba7f67f9fddaa5b2bcadc7e43ea6e88b",
      "transactionType": "CALL",
      "contractName": "WorkingPyth",
      "contractAddress": "0x431904fe789a377d166eefbae1681239c17b134b",
      "function": "setTestPrice(bytes32,int64,uint64,int32)",
      "arguments": [
        "0x49f6b65cb1de6b10eaf75e7c03ca029c306d0357e91b5311b175084a5ad55688",
        "23800000",
        "500000",
        "-5"
      ],
      "transaction": {
        "from": "0xa4e02339c313bf7fc9e70d5e0c5c2bfedf1b5327",
        "to": "0x431904fe789a377d166eefbae1681239c17b134b",
        "gas": "0x315b5",
        "value": "0x0",
        "input": "0x4c3c161649f6b65cb1de6b10eaf75e7c03ca029c306d0357e91b5311b175084a5ad5568800000000000000000000000000000000000000000000000000000000016b28c0000000000000000000000000000000000000000000000000000000000007a120fffffffffffffffffffffffffffffffffffffffffffffffffffffffffffffffb",
        "nonce": "0xecaa",
        "chainId": "0x1446f"
      },
      "additionalContracts": [],
      "isFixedGasLimit": false
    },
    {
      "hash": "0x375edbf13e6f162595dc73770c7b5c8836d265f62e89ebd31f26e09915630f27",
      "transactionType": "CALL",
      "contractName": "WorkingPyth",
      "contractAddress": "0x431904fe789a377d166eefbae1681239c17b134b",
      "function": "setTestPrice(bytes32,int64,uint64,int32)",
      "arguments": [
        "0xb1073854ed24cbc755dc527418f52b7d271f6cc967bbf8d8129112b18860a593",
        "17500000",
        "500000",
        "-5"
      ],
      "transaction": {
        "from": "0xa4e02339c313bf7fc9e70d5e0c5c2bfedf1b5327",
        "to": "0x431904fe789a377d166eefbae1681239c17b134b",
        "gas": "0x315b5",
        "value": "0x0",
        "input": "0x4c3c1616b1073854ed24cbc755dc527418f52b7d271f6cc967bbf8d8129112b18860a59300000000000000000000000000000000000000000000000000000000010b0760000000000000000000000000000000000000000000000000000000000007a120fffffffffffffffffffffffffffffffffffffffffffffffffffffffffffffffb",
        "nonce": "0xecab",
        "chainId": "0x1446f"
      },
      "additionalContracts": [],
      "isFixedGasLimit": false
    },
    {
      "hash": "0xad5078e86b71decdaf33a4272e7d6fd59f9d8272e4fd8c7db10a4fb012ebb728",
      "transactionType": "CALL",
      "contractName": "WorkingPyth",
      "contractAddress": "0x431904fe789a377d166eefbae1681239c17b134b",
      "function": "setTestPrice(bytes32,int64,uint64,int32)",
      "arguments": [
        "0xb5d0e0fa58a1f8b81498ae670ce93c872d14434b72c364885d4fa1b257cbb07a",
        "22000000",
        "500000",
        "-5"
      ],
      "transaction": {
        "from": "0xa4e02339c313bf7fc9e70d5e0c5c2bfedf1b5327",
        "to": "0x431904fe789a377d166eefbae1681239c17b134b",
        "gas": "0x315b5",
        "value": "0x0",
        "input": "0x4c3c1616b5d0e0fa58a1f8b81498ae670ce93c872d14434b72c364885d4fa1b257cbb07a00000000000000000000000000000000000000000000000000000000014fb180000000000000000000000000000000000000000000000000000000000007a120fffffffffffffffffffffffffffffffffffffffffffffffffffffffffffffffb",
        "nonce": "0xecac",
        "chainId": "0x1446f"
      },
      "additionalContracts": [],
      "isFixedGasLimit": false
    },
    {
      "hash": "0x6b1efb384aaa62d8215a18c81c22a09e4a9212126851f02b151bbc2655132225",
      "transactionType": "CALL",
      "contractName": "WorkingPyth",
      "contractAddress": "0x431904fe789a377d166eefbae1681239c17b134b",
      "function": "setTestPrice(bytes32,int64,uint64,int32)",
      "arguments": [
        "0x5a48c03e9b9cb337801073ed9d166817473697efff0d138874e0f6a33d6d5aa6",
        "19000000",
        "500000",
        "-5"
      ],
      "transaction": {
        "from": "0xa4e02339c313bf7fc9e70d5e0c5c2bfedf1b5327",
        "to": "0x431904fe789a377d166eefbae1681239c17b134b",
        "gas": "0x315b5",
        "value": "0x0",
        "input": "0x4c3c16165a48c03e9b9cb337801073ed9d166817473697efff0d138874e0f6a33d6d5aa6000000000000000000000000000000000000000000000000000000000121eac0000000000000000000000000000000000000000000000000000000000007a120fffffffffffffffffffffffffffffffffffffffffffffffffffffffffffffffb",
        "nonce": "0xecad",
        "chainId": "0x1446f"
      },
      "additionalContracts": [],
      "isFixedGasLimit": false
    }
  ],
  "receipts": [
    {
      "status": "0x1",
      "cumulativeGasUsed": "0x107172",
      "logs": [],
      "logsBloom": "0x00000000000000000000000000000000000000000000000000000000000000000000000000000000000000000000000000000000000000000000000000000000000000000000000000000000000000000000000000000000000000000000000000000000000000000000000000000000000000000000000000000000000000000000000000000000000000000000000000000000000000000000000000000000000000000000000000000000000000000000000000000000000000000000000000000000000000000000000000000000000000000000000000000000000000000000000000000000000000000000000000000000000000000000000000000000",
      "type": "0x2",
      "transactionHash": "0xd41bbb7febddf97db909456b60561bff2b617f9c6c6db476e9a83786a9aa021a",
      "transactionIndex": "0x0",
      "blockHash": "0xd872d350a3d719eeb8644820fbd20929ff4ea1adf4c73abbd0d46a09ae7f7e55",
      "blockNumber": "0xc862",
      "gasUsed": "0x107172",
      "effectiveGasPrice": "0x5d21dba01",
      "from": "0xa4e02339c313bf7fc9e70d5e0c5c2bfedf1b5327",
      "to": null,
      "contractAddress": "0x431904fe789a377d166eefbae1681239c17b134b"
    },
    {
      "status": "0x1",
      "cumulativeGasUsed": "0x12d6f8",
      "logs": [],
      "logsBloom": "0x00000000000000000000000000000000000000000000000000000000000000000000000000000000000000000000000000000000000000000000000000000000000000000000000000000000000000000000000000000000000000000000000000000000000000000000000000000000000000000000000000000000000000000000000000000000000000000000000000000000000000000000000000000000000000000000000000000000000000000000000000000000000000000000000000000000000000000000000000000000000000000000000000000000000000000000000000000000000000000000000000000000000000000000000000000000",
      "type": "0x2",
      "transactionHash": "0xed1f5332ea8191e8be9a043eac22252534ab69089fb416739b739c2fed1b779c",
      "transactionIndex": "0x0",
      "blockHash": "0x01dc524869fd312cafbfa51eb78fa79a4fba7359c3a8e0ab9a0b70be431a1a66",
      "blockNumber": "0xc863",
      "gasUsed": "0x12d6f8",
      "effectiveGasPrice": "0x5d21dba01",
      "from": "0xa4e02339c313bf7fc9e70d5e0c5c2bfedf1b5327",
      "to": null,
      "contractAddress": "0xda342fa7e014e7f9dc9227d5896b94cb1f61c6c8"
    },
    {
      "status": "0x1",
      "cumulativeGasUsed": "0x14f309",
      "logs": [
        {
          "address": "0x431904fe789a377d166eefbae1681239c17b134b",
          "topics": [
            "0xd06a6b7f4918494b3719217d1802786c1f5112a6c1d88fe2cfec00b4584f6aec",
            "0xe62df6c8b4a85fe1a67db44dc12de5db330f7ac66b72dc658afedf0f4a415b43"
          ],
          "data": "0x0000000000000000000000000000000000000000000000000000000068ca12eb00000000000000000000000000000000000000000000000000000a8cd5e12000000000000000000000000000000000000000000000000000000000174876e800",
          "blockHash": "0x01dc524869fd312cafbfa51eb78fa79a4fba7359c3a8e0ab9a0b70be431a1a66",
          "blockNumber": "0xc863",
          "transactionHash": "0xef485679bd4d1df1f873726d4e00bf060fddec654e8090c2656c97283bb9b101",
          "transactionIndex": "0x1",
          "logIndex": "0x0",
          "removed": false
        }
      ],
      "logsBloom": "0x00000000000000000000202000000000000000000000000000001000000000000000000000000000000000000002000000000000000000000000000000000000000000000000000000000000000000000000000000000000080000000002000000000000000000000000000000000000000000000000000000000000000000000000000000000000000000000000000000000000004000000000000000000000000000000000000000000000000000000000000000000001000000000000000000000000000000000000000040000000000000000000000000000000000000000000000000000000000000000000000000000000000000000000000000000000",
      "type": "0x2",
      "transactionHash": "0xef485679bd4d1df1f873726d4e00bf060fddec654e8090c2656c97283bb9b101",
      "transactionIndex": "0x1",
      "blockHash": "0x01dc524869fd312cafbfa51eb78fa79a4fba7359c3a8e0ab9a0b70be431a1a66",
      "blockNumber": "0xc863",
      "gasUsed": "0x21c11",
      "effectiveGasPrice": "0x5d21dba01",
      "from": "0xa4e02339c313bf7fc9e70d5e0c5c2bfedf1b5327",
      "to": "0x431904fe789a377d166eefbae1681239c17b134b",
      "contractAddress": null
    },
    {
      "status": "0x1",
      "cumulativeGasUsed": "0x170f0e",
      "logs": [
        {
          "address": "0x431904fe789a377d166eefbae1681239c17b134b",
          "topics": [
            "0xd06a6b7f4918494b3719217d1802786c1f5112a6c1d88fe2cfec00b4584f6aec",
            "0xff61491a931112ddf1bd8147cd1b641375f79f5825126d665480874634fd0ace"
          ],
          "data": "0x0000000000000000000000000000000000000000000000000000000068ca12eb00000000000000000000000000000000000000000000000000000068c617140000000000000000000000000000000000000000000000000000000002540be400",
          "blockHash": "0x01dc524869fd312cafbfa51eb78fa79a4fba7359c3a8e0ab9a0b70be431a1a66",
          "blockNumber": "0xc863",
          "transactionHash": "0xe8daa324cf76b7a882057d0b5f4a89a42274714845b6086aba49ed3cb81d9d28",
          "transactionIndex": "0x2",
          "logIndex": "0x1",
          "removed": false
        }
      ],
      "logsBloom": "0x00000000000000000000002000000000000000000000000000001000002000000000000000000000000000000002000000010000000000000000000000000000000000000100000000000000000000000000000000000000080000000002000000000000000000000000000000000000000000000000000000000000000000000000000000000000000000000000000000000000000000000000000000000000000000000000000000000000000000000000000000000001000000000000000000000000000000000000000000000000000000000000000000000000000000000000000000000000000000000000000000000000000000000000000000000000",
      "type": "0x2",
      "transactionHash": "0xe8daa324cf76b7a882057d0b5f4a89a42274714845b6086aba49ed3cb81d9d28",
      "transactionIndex": "0x2",
      "blockHash": "0x01dc524869fd312cafbfa51eb78fa79a4fba7359c3a8e0ab9a0b70be431a1a66",
      "blockNumber": "0xc863",
      "gasUsed": "0x21c05",
      "effectiveGasPrice": "0x5d21dba01",
      "from": "0xa4e02339c313bf7fc9e70d5e0c5c2bfedf1b5327",
      "to": "0x431904fe789a377d166eefbae1681239c17b134b",
      "contractAddress": null
    },
    {
      "status": "0x1",
      "cumulativeGasUsed": "0x192b07",
      "logs": [
        {
          "address": "0x431904fe789a377d166eefbae1681239c17b134b",
          "topics": [
            "0xd06a6b7f4918494b3719217d1802786c1f5112a6c1d88fe2cfec00b4584f6aec",
            "0x78a3e3b8e676a8f73c439f5d749737034b139bbbe899ba5775216fba596607fe"
          ],
          "data": "0x0000000000000000000000000000000000000000000000000000000068ca12eb0000000000000000000000000000000000000000000000000000000004a3224000000000000000000000000000000000000000000000000000000000000f4240",
          "blockHash": "0x01dc524869fd312cafbfa51eb78fa79a4fba7359c3a8e0ab9a0b70be431a1a66",
          "blockNumber": "0xc863",
          "transactionHash": "0xe71253edd4feb624f05e3f452725fc51812a06d747df46c24d45289a013f4d37",
          "transactionIndex": "0x3",
          "logIndex": "0x2",
          "removed": false
        }
      ],
      "logsBloom": "0x00000000000000000000002000000000000000000000000000001000000000000000000000000000000000000002000000000000000000000000000000000000000000000000000000000000000000000000000000000000080000000002000000000000000000000000000000000000000000000000000000000000000000000000000000000000000000000000000000000000000000000000000000000000000000000000000000000000000000000000002000000001000000000000000000000000000000000000000000000000000000000000000000000000000000000000000000000000000000000000000000000000000001000001000000000000",
      "type": "0x2",
      "transactionHash": "0xe71253edd4feb624f05e3f452725fc51812a06d747df46c24d45289a013f4d37",
      "transactionIndex": "0x3",
      "blockHash": "0x01dc524869fd312cafbfa51eb78fa79a4fba7359c3a8e0ab9a0b70be431a1a66",
      "blockNumber": "0xc863",
      "gasUsed": "0x21bf9",
      "effectiveGasPrice": "0x5d21dba01",
      "from": "0xa4e02339c313bf7fc9e70d5e0c5c2bfedf1b5327",
      "to": "0x431904fe789a377d166eefbae1681239c17b134b",
      "contractAddress": null
    },
    {
      "status": "0x1",
      "cumulativeGasUsed": "0x1b4700",
      "logs": [
        {
          "address": "0x431904fe789a377d166eefbae1681239c17b134b",
          "topics": [
            "0xd06a6b7f4918494b3719217d1802786c1f5112a6c1d88fe2cfec00b4584f6aec",
            "0x49f6b65cb1de6b10eaf75e7c03ca029c306d0357e91b5311b175084a5ad55688"
          ],
          "data": "0x0000000000000000000000000000000000000000000000000000000068ca12eb00000000000000000000000000000000000000000000000000000000016b28c0000000000000000000000000000000000000000000000000000000000007a120",
          "blockHash": "0x01dc524869fd312cafbfa51eb78fa79a4fba7359c3a8e0ab9a0b70be431a1a66",
          "blockNumber": "0xc863",
          "transactionHash": "0x873f81392b8dda956eee59342a609bf0ba7f67f9fddaa5b2bcadc7e43ea6e88b",
          "transactionIndex": "0x4",
          "logIndex": "0x3",
          "removed": false
        }
      ],
      "logsBloom": "0x00000000000000000000002000000000000000000000000000001000000000000000000000000000000000000002008000000000000000000000000000000000000000000000000000000080000000000000000000000000080000000002000000000000000000000000000000000000000000000000000000000000000000000000000000000000000000000000000000000010000000000000000000000000000000000000000000000000000000000000000000000001000000000000000000000000000000000000000000000000000000000000000000000000000000000000000000000000000000000000000000000000000000000000000000000000",
      "type": "0x2",
      "transactionHash": "0x873f81392b8dda956eee59342a609bf0ba7f67f9fddaa5b2bcadc7e43ea6e88b",
      "transactionIndex": "0x4",
      "blockHash": "0x01dc524869fd312cafbfa51eb78fa79a4fba7359c3a8e0ab9a0b70be431a1a66",
      "blockNumber": "0xc863",
      "gasUsed": "0x21bf9",
      "effectiveGasPrice": "0x5d21dba01",
      "from": "0xa4e02339c313bf7fc9e70d5e0c5c2bfedf1b5327",
      "to": "0x431904fe789a377d166eefbae1681239c17b134b",
      "contractAddress": null
    },
    {
      "status": "0x1",
      "cumulativeGasUsed": "0x1d62f9",
      "logs": [
        {
          "address": "0x431904fe789a377d166eefbae1681239c17b134b",
          "topics": [
            "0xd06a6b7f4918494b3719217d1802786c1f5112a6c1d88fe2cfec00b4584f6aec",
            "0xb1073854ed24cbc755dc527418f52b7d271f6cc967bbf8d8129112b18860a593"
          ],
          "data": "0x0000000000000000000000000000000000000000000000000000000068ca12eb00000000000000000000000000000000000000000000000000000000010b0760000000000000000000000000000000000000000000000000000000000007a120",
          "blockHash": "0x01dc524869fd312cafbfa51eb78fa79a4fba7359c3a8e0ab9a0b70be431a1a66",
          "blockNumber": "0xc863",
          "transactionHash": "0x375edbf13e6f162595dc73770c7b5c8836d265f62e89ebd31f26e09915630f27",
          "transactionIndex": "0x5",
          "logIndex": "0x4",
          "removed": false
        }
      ],
      "logsBloom": "0x00000000004000000000002000000000000000000000000000001000000000000000000000000000000000000002000000000000000000000000000000000000000000000000000000000000000000000000000000000000080000000002000000000000000000000000000000000000000000000000000000000000000000000000000000000000000000000000000000000000000000000000000000000000000000000000000000000000000000000000000000040001000000000000000000000000000000000000000000000000000000000000000000000000000000000000000000000000000000000000000000000000000000000000000000000001",
      "type": "0x2",
      "transactionHash": "0x375edbf13e6f162595dc73770c7b5c8836d265f62e89ebd31f26e09915630f27",
      "transactionIndex": "0x5",
      "blockHash": "0x01dc524869fd312cafbfa51eb78fa79a4fba7359c3a8e0ab9a0b70be431a1a66",
      "blockNumber": "0xc863",
      "gasUsed": "0x21bf9",
      "effectiveGasPrice": "0x5d21dba01",
      "from": "0xa4e02339c313bf7fc9e70d5e0c5c2bfedf1b5327",
      "to": "0x431904fe789a377d166eefbae1681239c17b134b",
      "contractAddress": null
    },
    {
      "status": "0x1",
      "cumulativeGasUsed": "0x1f7ef2",
      "logs": [
        {
          "address": "0x431904fe789a377d166eefbae1681239c17b134b",
          "topics": [
            "0xd06a6b7f4918494b3719217d1802786c1f5112a6c1d88fe2cfec00b4584f6aec",
            "0xb5d0e0fa58a1f8b81498ae670ce93c872d14434b72c364885d4fa1b257cbb07a"
          ],
          "data": "0x0000000000000000000000000000000000000000000000000000000068ca12eb00000000000000000000000000000000000000000000000000000000014fb180000000000000000000000000000000000000000000000000000000000007a120",
          "blockHash": "0x01dc524869fd312cafbfa51eb78fa79a4fba7359c3a8e0ab9a0b70be431a1a66",
          "blockNumber": "0xc863",
          "transactionHash": "0xad5078e86b71decdaf33a4272e7d6fd59f9d8272e4fd8c7db10a4fb012ebb728",
          "transactionIndex": "0x6",
          "logIndex": "0x5",
          "removed": false
        }
      ],
      "logsBloom": "0x00000000000000000000002000000000000000000000000000001000000000000000000000000000000000000002000000000000000000000000000000000000000000000000000000000000000008000000000000000000080000000002000000000000000000000000000000000000000000000000000000000000000000000000000000000000000000000000000000000000000000000000000000000000000000000000000000000000000000000000000000000001000000000000000000000000000000000000000000000000000000000000000000000000000000000000000010002000000000000000000000000000000000000000000000000000",
      "type": "0x2",
      "transactionHash": "0xad5078e86b71decdaf33a4272e7d6fd59f9d8272e4fd8c7db10a4fb012ebb728",
      "transactionIndex": "0x6",
      "blockHash": "0x01dc524869fd312cafbfa51eb78fa79a4fba7359c3a8e0ab9a0b70be431a1a66",
      "blockNumber": "0xc863",
      "gasUsed": "0x21bf9",
      "effectiveGasPrice": "0x5d21dba01",
      "from": "0xa4e02339c313bf7fc9e70d5e0c5c2bfedf1b5327",
      "to": "0x431904fe789a377d166eefbae1681239c17b134b",
      "contractAddress": null
    },
    {
      "status": "0x1",
      "cumulativeGasUsed": "0x219aeb",
      "logs": [
        {
          "address": "0x431904fe789a377d166eefbae1681239c17b134b",
          "topics": [
            "0xd06a6b7f4918494b3719217d1802786c1f5112a6c1d88fe2cfec00b4584f6aec",
            "0x5a48c03e9b9cb337801073ed9d166817473697efff0d138874e0f6a33d6d5aa6"
          ],
          "data": "0x0000000000000000000000000000000000000000000000000000000068ca12eb000000000000000000000000000000000000000000000000000000000121eac0000000000000000000000000000000000000000000000000000000000007a120",
          "blockHash": "0x01dc524869fd312cafbfa51eb78fa79a4fba7359c3a8e0ab9a0b70be431a1a66",
          "blockNumber": "0xc863",
          "transactionHash": "0x6b1efb384aaa62d8215a18c81c22a09e4a9212126851f02b151bbc2655132225",
          "transactionIndex": "0x7",
          "logIndex": "0x6",
          "removed": false
        }
      ],
      "logsBloom": "0x00000000000000000000002000000000000000000000000000001000000000000000000000000000000000000002000000000000000000000000000000000000000000000000000000000000000000000000000000000000080000000002000000000000000000000000000000000000200000000000000000000000000000000000000000000000000000000000000000000000000000000000000000000000000000000000000000000000000000000020000000000001000000000000000000000000000000000000000000000000000000000000000000000000000000000000000000000000000000000000000000000000000000000000000000000001",
      "type": "0x2",
      "transactionHash": "0x6b1efb384aaa62d8215a18c81c22a09e4a9212126851f02b151bbc2655132225",
      "transactionIndex": "0x7",
      "blockHash": "0x01dc524869fd312cafbfa51eb78fa79a4fba7359c3a8e0ab9a0b70be431a1a66",
      "blockNumber": "0xc863",
      "gasUsed": "0x21bf9",
      "effectiveGasPrice": "0x5d21dba01",
      "from": "0xa4e02339c313bf7fc9e70d5e0c5c2bfedf1b5327",
      "to": "0x431904fe789a377d166eefbae1681239c17b134b",
      "contractAddress": null
    }
  ],
  "libraries": [],
  "pending": [],
  "returns": {},
  "timestamp": 1758073580408,
  "chain": 83055,
  "commit": "ec0a3c2"
}