{
  "transactions": [
    {
      "hash": "0x1d4cb96d07f33ba269ac2a4d38b14e8c1927dc2a7422a9d76fac202903a7e5b8",
      "transactionType": "CREATE",
      "contractName": "PythOracleConsumer",
      "contractAddress": "0xe97b9105fc92f50de67ffcf4e0181991d5d2ac2c",
      "function": null,
      "arguments": null,
      "transaction": {
        "from": "0xa4e02339c313bf7fc9e70d5e0c5c2bfedf1b5327",
        "gas": "0x22c733",
        "value": "0x0",
        "input": "0x608060405260036004553480156013575f5ffd5b50335f5f6101000a81548173ffffffffffffffffffffffffffffffffffffffff021916908373ffffffffffffffffffffffffffffffffffffffff1602179055503373ffffffffffffffffffffffffffffffffffffffff165f73ffffffffffffffffffffffffffffffffffffffff167f8be0079c531659141344cd1fd0a4f28419497f9722a3daafe3b4186f6b6457e060405160405180910390a3611df7806100ba5f395ff3fe608060405234801561000f575f5ffd5b5060043610610140575f3560e01c8063b2ee2f01116100b6578063ce4b5bbe1161007a578063ce4b5bbe14610392578063d6dfa4f9146103b0578063d7dcdcec146103ce578063dac145ca146103ed578063f0141d8414610409578063f2fde38b1461042757610140565b8063b2ee2f01146102c4578063b7f433d1146102f6578063c27fd9dd14610326578063c6c3f71e14610342578063cc1301b21461037457610140565b80636b639258116101085780636b639258146101ea5780638aaf8ce2146102085780638b85bad5146102395780638da5cb5b1461026957806398d5fdca14610287578063a8897565146102a657610140565b806301ffc9a7146101445780630dcaeaf21461017457806317d6f622146101925780631a26f447146101ae57806327885d6e146101cc575b5f5ffd5b61015e60048036038101906101599190611482565b610443565b60405161016b91906114c7565b60405180910390f35b61017c6104ac565b60405161018991906114f8565b60405180910390f35b6101ac60048036038101906101a79190611544565b6104b1565b005b6101b6610613565b6040516101c391906114c7565b60405180910390f35b6101d46106fd565b6040516101e19190611626565b60405180910390f35b6101f2610753565b6040516101ff9190611661565b60405180910390f35b610222600480360381019061021d9190611544565b610758565b604051610230929190611695565b60405180910390f35b610253600480360381019061024e9190611544565b61082a565b60405161026091906114c7565b60405180910390f35b610271610847565b60405161027e91906116fb565b60405180910390f35b61028f61086b565b60405161029d929190611714565b60405180910390f35b6102ae610881565b6040516102bb91906114f8565b60405180910390f35b6102de60048036038101906102d99190611544565b610887565b6040516102ed9392919061173b565b60405180910390f35b610310600480360381019061030b919061179a565b610963565b60405161031d91906117d4565b60405180910390f35b610340600480360381019061033b91906118f8565b610983565b005b61035c60048036038101906103579190611544565b610aeb565b60405161036b9392919061173b565b60405180910390f35b61037c610b29565b6040516103899190611661565b60405180910390f35b61039a610b2e565b6040516103a791906114f8565b60405180910390f35b6103b8610b37565b6040516103c591906114f8565b60405180910390f35b6103d6610b45565b6040516103e4929190611714565b60405180910390f35b6104076004803603810190610402919061179a565b610b5b565b005b610411610c2a565b60405161041e9190611661565b60405180910390f35b610441600480360381019061043c91906119d2565b610c32565b005b5f7fa53bc8e5000000000000000000000000000000000000000000000000000000007bffffffffffffffffffffffffffffffffffffffffffffffffffffffff1916827bffffffffffffffffffffffffffffffffffffffffffffffffffffffff1916149050919050565b601e81565b5f5f9054906101000a900473ffffffffffffffffffffffffffffffffffffffff1673ffffffffffffffffffffffffffffffffffffffff163373ffffffffffffffffffffffffffffffffffffffff1614610536576040517f82b4290000000000000000000000000000000000000000000000000000000000815260040160405180910390fd5b60035f8281526020019081526020015f205f9054906101000a900460ff1615610594576040517f08c379a000000000000000000000000000000000000000000000000000000000815260040161058b90611a57565b60405180910390fd5b600281908060018154018082558091505060019003905f5260205f20015f9091909190915055600160035f8381526020019081526020015f205f6101000a81548160ff021916908315150217905550807f593b910f0f465d6afc36eac2f62d3e47aad41259ec2eade4ffe9728339cac90860405160405180910390a250565b5f5f61061d610de6565b90506004548110156106335760019150506106fa565b5f5f90505b6002805490508110156106f4575f6002828154811061065a57610659611a75565b5b905f5260205f200154905060035f8281526020019081526020015f205f9054906101000a900460ff1680156106ac575060015f8281526020019081526020015f206002015f9054906101000a900460ff165b156106e657601e60015f8381526020019081526020015f2060010154426106d39190611acf565b11156106e557600193505050506106fa565b5b508080600101915050610638565b505f9150505b90565b6060600280548060200260200160405190810160405280929190818152602001828054801561074957602002820191905f5260205f20905b815481526020019060010190808311610735575b5050505050905090565b601281565b5f5f60035f8481526020019081526020015f205f9054906101000a900460ff166107b957826040517f7966b1440000000000000000000000000000000000000000000000000000000081526004016107b091906117d4565b60405180910390fd5b5f60015f8581526020019081526020015f206040518060600160405290815f82015f9054906101000a900460070b60070b60070b815260200160018201548152602001600282015f9054906101000a900460ff1615151515815250509050805f015181602001519250925050915091565b6003602052805f5260405f205f915054906101000a900460ff1681565b5f5f9054906101000a900473ffffffffffffffffffffffffffffffffffffffff1681565b5f5f610875610eae565b80925081935050509091565b60045481565b5f5f5f60035f8581526020019081526020015f205f9054906101000a900460ff166108e957836040517f7966b1440000000000000000000000000000000000000000000000000000000081526004016108e091906117d4565b60405180910390fd5b5f60015f8681526020019081526020015f206040518060600160405290815f82015f9054906101000a900460070b60070b60070b815260200160018201548152602001600282015f9054906101000a900460ff1615151515815250509050805f015181602001518260400151935093509350509193909250565b60028181548110610972575f80fd5b905f5260205f20015f915090505481565b5f5f9054906101000a900473ffffffffffffffffffffffffffffffffffffffff1673ffffffffffffffffffffffffffffffffffffffff163373ffffffffffffffffffffffffffffffffffffffff1614610a08576040517f82b4290000000000000000000000000000000000000000000000000000000000815260040160405180910390fd5b8383905086869050148015610a2257508181905084849050145b610a61576040517f08c379a0000000000000000000000000000000000000000000000000000000008152600401610a5890611b4c565b60405180910390fd5b5f5f90505b86869050811015610ae257610ad5878783818110610a8757610a86611a75565b5b90506020020135868684818110610aa157610aa0611a75565b5b9050602002016020810190610ab69190611b94565b858585818110610ac957610ac8611a75565b5b905060200201356110be565b8080600101915050610a66565b50505050505050565b6001602052805f5260405f205f91509050805f015f9054906101000a900460070b90806001015490806002015f9054906101000a900460ff16905083565b600881565b6402540be40081565b5f610b40610de6565b905090565b5f5f610b4f611215565b80925081935050509091565b5f5f9054906101000a900473ffffffffffffffffffffffffffffffffffffffff1673ffffffffffffffffffffffffffffffffffffffff163373ffffffffffffffffffffffffffffffffffffffff1614610be0576040517f82b4290000000000000000000000000000000000000000000000000000000000815260040160405180910390fd5b5f6004549050816004819055507f604380c0749a3094c68bb6deb93fd106d6eae24eb2700dff9a2a9d27cfb98fb08183604051610c1e929190611714565b60405180910390a15050565b5f6012905090565b5f5f9054906101000a900473ffffffffffffffffffffffffffffffffffffffff1673ffffffffffffffffffffffffffffffffffffffff163373ffffffffffffffffffffffffffffffffffffffff1614610cb7576040517f82b4290000000000000000000000000000000000000000000000000000000000815260040160405180910390fd5b5f73ffffffffffffffffffffffffffffffffffffffff168173ffffffffffffffffffffffffffffffffffffffff1603610d25576040517f08c379a0000000000000000000000000000000000000000000000000000000008152600401610d1c90611c09565b60405180910390fd5b5f5f5f9054906101000a900473ffffffffffffffffffffffffffffffffffffffff169050815f5f6101000a81548173ffffffffffffffffffffffffffffffffffffffff021916908373ffffffffffffffffffffffffffffffffffffffff1602179055508173ffffffffffffffffffffffffffffffffffffffff168173ffffffffffffffffffffffffffffffffffffffff167f8be0079c531659141344cd1fd0a4f28419497f9722a3daafe3b4186f6b6457e060405160405180910390a35050565b5f5f5f90505b600280549050811015610eaa575f60028281548110610e0e57610e0d611a75565b5b905f5260205f200154905060035f8281526020019081526020015f205f9054906101000a900460ff168015610e60575060015f8281526020019081526020015f206002015f9054906101000a900460ff165b15610e9c57601e60015f8381526020019081526020015f206001015442610e879190611acf565b11610e9b578280610e9790611c27565b9350505b5b508080600101915050610dec565b5090565b5f5f5f610eb9610de6565b9050600454811015610f0657806004546040517fb2165b51000000000000000000000000000000000000000000000000000000008152600401610efd929190611714565b60405180910390fd5b5f5f90505f5f90505f5f90505f5f90505b60028054905081101561104c575f60028281548110610f3957610f38611a75565b5b905f5260205f200154905060035f8281526020019081526020015f205f9054906101000a900460ff168015610f8b575060015f8281526020019081526020015f206002015f9054906101000a900460ff165b1561103e575f60015f8381526020019081526020015f206040518060600160405290815f82015f9054906101000a900460070b60070b60070b815260200160018201548152602001600282015f9054906101000a900460ff1615151515815250509050601e8160200151426110009190611acf565b1161103c57805f015160070b866110179190611c6e565b9550848160200151111561102d57806020015194505b838061103890611c27565b9450505b505b508080600101915050610f17565b505f8103611095575f6004546040517fb2165b5100000000000000000000000000000000000000000000000000000000815260040161108c929190611ce3565b60405180910390fd5b806402540be400846110a79190611d0a565b6110b19190611d78565b9550819450505050509091565b5f8260070b1361110557816040517fd4530c890000000000000000000000000000000000000000000000000000000081526004016110fc9190611da8565b60405180910390fd5b5f810361114957806040517f25c2082800000000000000000000000000000000000000000000000000000000815260040161114091906114f8565b60405180910390fd5b60405180606001604052808360070b81526020018281526020016001151581525060015f8581526020019081526020015f205f820151815f015f6101000a81548167ffffffffffffffff021916908360070b67ffffffffffffffff160217905550602082015181600101556040820151816002015f6101000a81548160ff021916908315150217905550905050827f48e4eb7ca7edfda8ae18740ec1c22b6c1952b35506727aef79c539a8c4e08cc18383604051611208929190611695565b60405180910390a2505050565b5f5f5f611220610de6565b905060045481101561126d57806004546040517fb2165b51000000000000000000000000000000000000000000000000000000008152600401611264929190611714565b60405180910390fd5b5f5f90505f5f90505f5f90505f5f90505b6002805490508110156113b3575f600282815481106112a05761129f611a75565b5b905f5260205f200154905060035f8281526020019081526020015f205f9054906101000a900460ff1680156112f2575060015f8281526020019081526020015f206002015f9054906101000a900460ff165b156113a5575f60015f8381526020019081526020015f206040518060600160405290815f82015f9054906101000a900460070b60070b60070b815260200160018201548152602001600282015f9054906101000a900460ff1615151515815250509050601e8160200151426113679190611acf565b116113a357805f015160070b8661137e9190611c6e565b9550848160200151111561139457806020015194505b838061139f90611c27565b9450505b505b50808060010191505061127e565b505f81036113fc575f6004546040517fb2165b510000000000000000000000000000000000000000000000000000000081526004016113f3929190611ce3565b60405180910390fd5b806402540be4008461140e9190611d0a565b6114189190611d78565b9550819450505050509091565b5f5ffd5b5f5ffd5b5f7fffffffff0000000000000000000000000000000000000000000000000000000082169050919050565b6114618161142d565b811461146b575f5ffd5b50565b5f8135905061147c81611458565b92915050565b5f6020828403121561149757611496611425565b5b5f6114a48482850161146e565b91505092915050565b5f8115159050919050565b6114c1816114ad565b82525050565b5f6020820190506114da5f8301846114b8565b92915050565b5f819050919050565b6114f2816114e0565b82525050565b5f60208201905061150b5f8301846114e9565b92915050565b5f819050919050565b61152381611511565b811461152d575f5ffd5b50565b5f8135905061153e8161151a565b92915050565b5f6020828403121561155957611558611425565b5b5f61156684828501611530565b91505092915050565b5f81519050919050565b5f82825260208201905092915050565b5f819050602082019050919050565b6115a181611511565b82525050565b5f6115b28383611598565b60208301905092915050565b5f602082019050919050565b5f6115d48261156f565b6115de8185611579565b93506115e983611589565b805f5b8381101561161957815161160088826115a7565b975061160b836115be565b9250506001810190506115ec565b5085935050505092915050565b5f6020820190508181035f83015261163e81846115ca565b905092915050565b5f60ff82169050919050565b61165b81611646565b82525050565b5f6020820190506116745f830184611652565b92915050565b5f8160070b9050919050565b61168f8161167a565b82525050565b5f6040820190506116a85f830185611686565b6116b560208301846114e9565b9392505050565b5f73ffffffffffffffffffffffffffffffffffffffff82169050919050565b5f6116e5826116bc565b9050919050565b6116f5816116db565b82525050565b5f60208201905061170e5f8301846116ec565b92915050565b5f6040820190506117275f8301856114e9565b61173460208301846114e9565b9392505050565b5f60608201905061174e5f830186611686565b61175b60208301856114e9565b61176860408301846114b8565b949350505050565b611779816114e0565b8114611783575f5ffd5b50565b5f8135905061179481611770565b92915050565b5f602082840312156117af576117ae611425565b5b5f6117bc84828501611786565b91505092915050565b6117ce81611511565b82525050565b5f6020820190506117e75f8301846117c5565b92915050565b5f5ffd5b5f5ffd5b5f5ffd5b5f5f83601f84011261180e5761180d6117ed565b5b8235905067ffffffffffffffff81111561182b5761182a6117f1565b5b602083019150836020820283011115611847576118466117f5565b5b9250929050565b5f5f83601f840112611863576118626117ed565b5b8235905067ffffffffffffffff8111156118805761187f6117f1565b5b60208301915083602082028301111561189c5761189b6117f5565b5b9250929050565b5f5f83601f8401126118b8576118b76117ed565b5b8235905067ffffffffffffffff8111156118d5576118d46117f1565b5b6020830191508360208202830111156118f1576118f06117f5565b5b9250929050565b5f5f5f5f5f5f6060878903121561191257611911611425565b5b5f87013567ffffffffffffffff81111561192f5761192e611429565b5b61193b89828a016117f9565b9650965050602087013567ffffffffffffffff81111561195e5761195d611429565b5b61196a89828a0161184e565b9450945050604087013567ffffffffffffffff81111561198d5761198c611429565b5b61199989828a016118a3565b92509250509295509295509295565b6119b1816116db565b81146119bb575f5ffd5b50565b5f813590506119cc816119a8565b92915050565b5f602082840312156119e7576119e6611425565b5b5f6119f4848285016119be565b91505092915050565b5f82825260208201905092915050565b7f4665656420616c726561647920726567697374657265640000000000000000005f82015250565b5f611a416017836119fd565b9150611a4c82611a0d565b602082019050919050565b5f6020820190508181035f830152611a6e81611a35565b9050919050565b7f4e487b71000000000000000000000000000000000000000000000000000000005f52603260045260245ffd5b7f4e487b71000000000000000000000000000000000000000000000000000000005f52601160045260245ffd5b5f611ad9826114e0565b9150611ae4836114e0565b9250828203905081811115611afc57611afb611aa2565b5b92915050565b7f417272617973206c656e677468206d69736d61746368000000000000000000005f82015250565b5f611b366016836119fd565b9150611b4182611b02565b602082019050919050565b5f6020820190508181035f830152611b6381611b2a565b9050919050565b611b738161167a565b8114611b7d575f5ffd5b50565b5f81359050611b8e81611b6a565b92915050565b5f60208284031215611ba957611ba8611425565b5b5f611bb684828501611b80565b91505092915050565b7f4e6577206f776e65722063616e6e6f74206265207a65726f20616464726573735f82015250565b5f611bf36020836119fd565b9150611bfe82611bbf565b602082019050919050565b5f6020820190508181035f830152611c2081611be7565b9050919050565b5f611c31826114e0565b91507fffffffffffffffffffffffffffffffffffffffffffffffffffffffffffffffff8203611c6357611c62611aa2565b5b600182019050919050565b5f611c78826114e0565b9150611c83836114e0565b9250828201905080821115611c9b57611c9a611aa2565b5b92915050565b5f819050919050565b5f819050919050565b5f611ccd611cc8611cc384611ca1565b611caa565b6114e0565b9050919050565b611cdd81611cb3565b82525050565b5f604082019050611cf65f830185611cd4565b611d0360208301846114e9565b9392505050565b5f611d14826114e0565b9150611d1f836114e0565b9250828202611d2d816114e0565b91508282048414831517611d4457611d43611aa2565b5b5092915050565b7f4e487b71000000000000000000000000000000000000000000000000000000005f52601260045260245ffd5b5f611d82826114e0565b9150611d8d836114e0565b925082611d9d57611d9c611d4b565b5b828204905092915050565b5f602082019050611dbb5f830184611686565b9291505056fea2646970667358221220bef9683157d337322536183e574a1431590c8991cfaa80498fb2562c363b07b864736f6c634300081e0033",
        "nonce": "0xf34e",
        "chainId": "0x1446f"
      },
      "additionalContracts": [],
      "isFixedGasLimit": false
    },
    {
      "hash": "0xc99d6319bc024f0f3c0b66f037215f72d3108ca9c73d8a582dc5d0eaf279d223",
      "transactionType": "CALL",
      "contractName": "PythOracleConsumer",
      "contractAddress": "0xe97b9105fc92f50de67ffcf4e0181991d5d2ac2c",
      "function": "registerFeed(bytes32)",
      "arguments": [
        "0x78a3e3b8e676a8f73c439f5d749737034b139bbbe899ba5775216fba596607fe"
      ],
      "transaction": {
        "from": "0xa4e02339c313bf7fc9e70d5e0c5c2bfedf1b5327",
        "to": "0xe97b9105fc92f50de67ffcf4e0181991d5d2ac2c",
        "gas": "0x20e81",
        "value": "0x0",
        "input": "0x17d6f62278a3e3b8e676a8f73c439f5d749737034b139bbbe899ba5775216fba596607fe",
        "nonce": "0xf34f",
        "chainId": "0x1446f"
      },
      "additionalContracts": [],
      "isFixedGasLimit": false
    },
    {
      "hash": "0xe50762ebb61e78162e3706eaed389df35cbf83b404f1f86a3a739f30e9f9ef6a",
      "transactionType": "CALL",
      "contractName": "PythOracleConsumer",
      "contractAddress": "0xe97b9105fc92f50de67ffcf4e0181991d5d2ac2c",
      "function": "registerFeed(bytes32)",
      "arguments": [
        "0x49f6b65cb1de6b10eaf75e7c03ca029c306d0357e91b5311b175084a5ad55688"
      ],
      "transaction": {
        "from": "0xa4e02339c313bf7fc9e70d5e0c5c2bfedf1b5327",
        "to": "0xe97b9105fc92f50de67ffcf4e0181991d5d2ac2c",
        "gas": "0x194fd",
        "value": "0x0",
        "input": "0x17d6f62249f6b65cb1de6b10eaf75e7c03ca029c306d0357e91b5311b175084a5ad55688",
        "nonce": "0xf350",
        "chainId": "0x1446f"
      },
      "additionalContracts": [],
      "isFixedGasLimit": false
    },
    {
      "hash": "0xd368884de09f5cc22e3850f1ec080038faad1edbe229644976751b26097383ca",
      "transactionType": "CALL",
      "contractName": "PythOracleConsumer",
      "contractAddress": "0xe97b9105fc92f50de67ffcf4e0181991d5d2ac2c",
      "function": "registerFeed(bytes32)",
      "arguments": [
        "0xb5d0e0fa58a1f8b81498ae670ce93c872d14434b72c364885d4fa1b257cbb07a"
      ],
      "transaction": {
        "from": "0xa4e02339c313bf7fc9e70d5e0c5c2bfedf1b5327",
        "to": "0xe97b9105fc92f50de67ffcf4e0181991d5d2ac2c",
        "gas": "0x194fd",
        "value": "0x0",
        "input": "0x17d6f622b5d0e0fa58a1f8b81498ae670ce93c872d14434b72c364885d4fa1b257cbb07a",
        "nonce": "0xf351",
        "chainId": "0x1446f"
      },
      "additionalContracts": [],
      "isFixedGasLimit": false
    },
    {
      "hash": "0xfbaedf09e07904fa32c74f058306f0678162bc6d575d5700693436a8f845a145",
      "transactionType": "CALL",
      "contractName": "PythOracleConsumer",
      "contractAddress": "0xe97b9105fc92f50de67ffcf4e0181991d5d2ac2c",
      "function": "registerFeed(bytes32)",
      "arguments": [
        "0xb1073854ed24cbc755dc527418f52b7d271f6cc967bbf8d8129112b18860a593"
      ],
      "transaction": {
        "from": "0xa4e02339c313bf7fc9e70d5e0c5c2bfedf1b5327",
        "to": "0xe97b9105fc92f50de67ffcf4e0181991d5d2ac2c",
        "gas": "0x194fd",
        "value": "0x0",
        "input": "0x17d6f622b1073854ed24cbc755dc527418f52b7d271f6cc967bbf8d8129112b18860a593",
        "nonce": "0xf352",
        "chainId": "0x1446f"
      },
      "additionalContracts": [],
      "isFixedGasLimit": false
    },
    {
      "hash": "0xa0fc55678455d3eeb13a6f28622d969b0fe2a7b2bed79600b45adbd362a1cace",
      "transactionType": "CALL",
      "contractName": "PythOracleConsumer",
      "contractAddress": "0xe97b9105fc92f50de67ffcf4e0181991d5d2ac2c",
      "function": "registerFeed(bytes32)",
      "arguments": [
        "0x5a48c03e9b9cb337801073ed9d166817473697efff0d138874e0f6a33d6d5aa6"
      ],
      "transaction": {
        "from": "0xa4e02339c313bf7fc9e70d5e0c5c2bfedf1b5327",
        "to": "0xe97b9105fc92f50de67ffcf4e0181991d5d2ac2c",
        "gas": "0x194fd",
        "value": "0x0",
        "input": "0x17d6f6225a48c03e9b9cb337801073ed9d166817473697efff0d138874e0f6a33d6d5aa6",
        "nonce": "0xf353",
        "chainId": "0x1446f"
      },
      "additionalContracts": [],
      "isFixedGasLimit": false
    },
    {
      "hash": "0xcfc04d56f9d975caa3ea9d1ffa8d8adca9ec2b67df774ba866370c81f8003aa9",
      "transactionType": "CALL",
      "contractName": "PythOracleConsumer",
      "contractAddress": "0xe97b9105fc92f50de67ffcf4e0181991d5d2ac2c",
      "function": "setMinValidFeeds(uint256)",
      "arguments": [
        "3"
      ],
      "transaction": {
        "from": "0xa4e02339c313bf7fc9e70d5e0c5c2bfedf1b5327",
        "to": "0xe97b9105fc92f50de67ffcf4e0181991d5d2ac2c",
        "gas": "0x9ddd",
        "value": "0x0",
        "input": "0xdac145ca0000000000000000000000000000000000000000000000000000000000000003",
        "nonce": "0xf354",
        "chainId": "0x1446f"
      },
      "additionalContracts": [],
      "isFixedGasLimit": false
    }
  ],
  "receipts": [
    {
      "status": "0x1",
      "cumulativeGasUsed": "0x1ac09e",
      "logs": [
        {
          "address": "0xe97b9105fc92f50de67ffcf4e0181991d5d2ac2c",
          "topics": [
            "0x8be0079c531659141344cd1fd0a4f28419497f9722a3daafe3b4186f6b6457e0",
            "0x0000000000000000000000000000000000000000000000000000000000000000",
            "0x000000000000000000000000a4e02339c313bf7fc9e70d5e0c5c2bfedf1b5327"
          ],
          "data": "0x",
          "blockHash": "0x06aea75f92c30da9f8f15be0df142aa2e18309e2f286e7bb544b927a65685e51",
          "blockNumber": "0xd221",
          "transactionHash": "0x1d4cb96d07f33ba269ac2a4d38b14e8c1927dc2a7422a9d76fac202903a7e5b8",
          "transactionIndex": "0x0",
          "logIndex": "0x0",
          "removed": false
        }
      ],
      "logsBloom": "0x00000000000000000000000000000800000000000000000000800000000000000000000000000000000000000000000000000000000000000000000000000000000000000000000000000000000000000401000000000000000000000080080000000000020000000000000000000800000000000000000000000000000000400000000000000000000000000000000000000000000000000000000000000000000000000000000000000000000000000000000100000000000000000000000000000000000000000000000000000000000000000000000000000010000020000000000000000000000000000000000000000000000000000000000000000000",
      "type": "0x2",
      "transactionHash": "0x1d4cb96d07f33ba269ac2a4d38b14e8c1927dc2a7422a9d76fac202903a7e5b8",
      "transactionIndex": "0x0",
      "blockHash": "0x06aea75f92c30da9f8f15be0df142aa2e18309e2f286e7bb544b927a65685e51",
      "blockNumber": "0xd221",
      "gasUsed": "0x1ac09e",
      "effectiveGasPrice": "0x62b85e900",
      "from": "0xa4e02339c313bf7fc9e70d5e0c5c2bfedf1b5327",
      "to": null,
      "contractAddress": "0xe97b9105fc92f50de67ffcf4e0181991d5d2ac2c"
    },
    {
      "status": "0x1",
      "cumulativeGasUsed": "0x1c289f",
      "logs": [
        {
          "address": "0xe97b9105fc92f50de67ffcf4e0181991d5d2ac2c",
          "topics": [
            "0x593b910f0f465d6afc36eac2f62d3e47aad41259ec2eade4ffe9728339cac908",
            "0x78a3e3b8e676a8f73c439f5d749737034b139bbbe899ba5775216fba596607fe"
          ],
          "data": "0x",
          "blockHash": "0x06aea75f92c30da9f8f15be0df142aa2e18309e2f286e7bb544b927a65685e51",
          "blockNumber": "0xd221",
          "transactionHash": "0xc99d6319bc024f0f3c0b66f037215f72d3108ca9c73d8a582dc5d0eaf279d223",
          "transactionIndex": "0x1",
          "logIndex": "0x1",
          "removed": false
        }
      ],
      "logsBloom": "0x00000000000000000000000000000800000000000000000000000000000000000000000000000000000000000000000000000000000000000000000000000000000000000000000000010000000000000000000000000000000000000080000000000000004000000000000000000000000000000000000000000000000000000000000000000000000000000000000000000000000000000000000000000000000000000000000000000000000000000000002000000000000000000000000000000000000000000000000000000000000000000000000000000010000000100000000000000000000000000000000000000000000001000001000000000000",
      "type": "0x2",
      "transactionHash": "0xc99d6319bc024f0f3c0b66f037215f72d3108ca9c73d8a582dc5d0eaf279d223",
      "transactionIndex": "0x1",
      "blockHash": "0x06aea75f92c30da9f8f15be0df142aa2e18309e2f286e7bb544b927a65685e51",
      "blockNumber": "0xd221",
      "gasUsed": "0x16801",
      "effectiveGasPrice": "0x62b85e900",
      "from": "0xa4e02339c313bf7fc9e70d5e0c5c2bfedf1b5327",
      "to": "0xe97b9105fc92f50de67ffcf4e0181991d5d2ac2c",
      "contractAddress": null
    },
    {
      "status": "0x1",
      "cumulativeGasUsed": "0x1d4dd4",
      "logs": [
        {
          "address": "0xe97b9105fc92f50de67ffcf4e0181991d5d2ac2c",
          "topics": [
            "0x593b910f0f465d6afc36eac2f62d3e47aad41259ec2eade4ffe9728339cac908",
            "0x49f6b65cb1de6b10eaf75e7c03ca029c306d0357e91b5311b175084a5ad55688"
          ],
          "data": "0x",
          "blockHash": "0x06aea75f92c30da9f8f15be0df142aa2e18309e2f286e7bb544b927a65685e51",
          "blockNumber": "0xd221",
          "transactionHash": "0xe50762ebb61e78162e3706eaed389df35cbf83b404f1f86a3a739f30e9f9ef6a",
          "transactionIndex": "0x2",
          "logIndex": "0x2",
          "removed": false
        }
      ],
      "logsBloom": "0x00000000000000000000000000000800000000000000000000000000000000000000000000000000000000000000008000000000000000000000000000000000000000000000000000010080000000000000000000000000000000000080000000000000004000000000000000000000000000000000000000000000000000000000000000000000000000000000000000000010000000000000000000000000000000000000000000000000000000000000000000000000000000000000000000000000000000000000000000000000000000000000000000000010000000100000000000000000000000000000000000000000000000000000000000000000",
      "type": "0x2",
      "transactionHash": "0xe50762ebb61e78162e3706eaed389df35cbf83b404f1f86a3a739f30e9f9ef6a",
      "transactionIndex": "0x2",
      "blockHash": "0x06aea75f92c30da9f8f15be0df142aa2e18309e2f286e7bb544b927a65685e51",
      "blockNumber": "0xd221",
      "gasUsed": "0x12535",
      "effectiveGasPrice": "0x62b85e900",
      "from": "0xa4e02339c313bf7fc9e70d5e0c5c2bfedf1b5327",
      "to": "0xe97b9105fc92f50de67ffcf4e0181991d5d2ac2c",
      "contractAddress": null
    },
    {
      "status": "0x1",
      "cumulativeGasUsed": "0x1e7309",
      "logs": [
        {
          "address": "0xe97b9105fc92f50de67ffcf4e0181991d5d2ac2c",
          "topics": [
            "0x593b910f0f465d6afc36eac2f62d3e47aad41259ec2eade4ffe9728339cac908",
            "0xb5d0e0fa58a1f8b81498ae670ce93c872d14434b72c364885d4fa1b257cbb07a"
          ],
          "data": "0x",
          "blockHash": "0x06aea75f92c30da9f8f15be0df142aa2e18309e2f286e7bb544b927a65685e51",
          "blockNumber": "0xd221",
          "transactionHash": "0xd368884de09f5cc22e3850f1ec080038faad1edbe229644976751b26097383ca",
          "transactionIndex": "0x3",
          "logIndex": "0x3",
          "removed": false
        }
      ],
      "logsBloom": "0x00000000000000000000000000000800000000000000000000000000000000000000000000000000000000000000000000000000000000000000000000000000000000000000000000010000000008000000000000000000000000000080000000000000004000000000000000000000000000000000000000000000000000000000000000000000000000000000000000000000000000000000000000000000000000000000000000000000000000000000000000000000000000000000000000000000000000000000000000000000000000000000000000000010000000100000000010002000000000000000000000000000000000000000000000000000",
      "type": "0x2",
      "transactionHash": "0xd368884de09f5cc22e3850f1ec080038faad1edbe229644976751b26097383ca",
      "transactionIndex": "0x3",
      "blockHash": "0x06aea75f92c30da9f8f15be0df142aa2e18309e2f286e7bb544b927a65685e51",
      "blockNumber": "0xd221",
      "gasUsed": "0x12535",
      "effectiveGasPrice": "0x62b85e900",
      "from": "0xa4e02339c313bf7fc9e70d5e0c5c2bfedf1b5327",
      "to": "0xe97b9105fc92f50de67ffcf4e0181991d5d2ac2c",
      "contractAddress": null
    },
    {
      "status": "0x1",
      "cumulativeGasUsed": "0x1f983e",
      "logs": [
        {
          "address": "0xe97b9105fc92f50de67ffcf4e0181991d5d2ac2c",
          "topics": [
            "0x593b910f0f465d6afc36eac2f62d3e47aad41259ec2eade4ffe9728339cac908",
            "0xb1073854ed24cbc755dc527418f52b7d271f6cc967bbf8d8129112b18860a593"
          ],
          "data": "0x",
          "blockHash": "0x06aea75f92c30da9f8f15be0df142aa2e18309e2f286e7bb544b927a65685e51",
          "blockNumber": "0xd221",
          "transactionHash": "0xfbaedf09e07904fa32c74f058306f0678162bc6d575d5700693436a8f845a145",
          "transactionIndex": "0x4",
          "logIndex": "0x4",
          "removed": false
        }
      ],
      "logsBloom": "0x00000000004000000000000000000800000000000000000000000000000000000000000000000000000000000000000000000000000000000000000000000000000000000000000000010000000000000000000000000000000000000080000000000000004000000000000000000000000000000000000000000000000000000000000000000000000000000000000000000000000000000000000000000000000000000000000000000000000000000000000000040000000000000000000000000000000000000000000000000000000000000000000000000010000000100000000000000000000000000000000000000000000000000000000000000001",
      "type": "0x2",
      "transactionHash": "0xfbaedf09e07904fa32c74f058306f0678162bc6d575d5700693436a8f845a145",
      "transactionIndex": "0x4",
      "blockHash": "0x06aea75f92c30da9f8f15be0df142aa2e18309e2f286e7bb544b927a65685e51",
      "blockNumber": "0xd221",
      "gasUsed": "0x12535",
      "effectiveGasPrice": "0x62b85e900",
      "from": "0xa4e02339c313bf7fc9e70d5e0c5c2bfedf1b5327",
      "to": "0xe97b9105fc92f50de67ffcf4e0181991d5d2ac2c",
      "contractAddress": null
    },
    {
      "status": "0x1",
      "cumulativeGasUsed": "0x20bd73",
      "logs": [
        {
          "address": "0xe97b9105fc92f50de67ffcf4e0181991d5d2ac2c",
          "topics": [
            "0x593b910f0f465d6afc36eac2f62d3e47aad41259ec2eade4ffe9728339cac908",
            "0x5a48c03e9b9cb337801073ed9d166817473697efff0d138874e0f6a33d6d5aa6"
          ],
          "data": "0x",
          "blockHash": "0x06aea75f92c30da9f8f15be0df142aa2e18309e2f286e7bb544b927a65685e51",
          "blockNumber": "0xd221",
          "transactionHash": "0xa0fc55678455d3eeb13a6f28622d969b0fe2a7b2bed79600b45adbd362a1cace",
          "transactionIndex": "0x5",
          "logIndex": "0x5",
          "removed": false
        }
      ],
      "logsBloom": "0x00000000000000000000000000000800000000000000000000000000000000000000000000000000000000000000000000000000000000000000000000000000000000000000000000010000000000000000000000000000000000000080000000000000004000000000000000000000200000000000000000000000000000000000000000000000000000000000000000000000000000000000000000000000000000000000000000000000000000000020000000000000000000000000000000000000000000000000000000000000000000000000000000000010000000100000000000000000000000000000000000000000000000000000000000000001",
      "type": "0x2",
      "transactionHash": "0xa0fc55678455d3eeb13a6f28622d969b0fe2a7b2bed79600b45adbd362a1cace",
      "transactionIndex": "0x5",
      "blockHash": "0x06aea75f92c30da9f8f15be0df142aa2e18309e2f286e7bb544b927a65685e51",
      "blockNumber": "0xd221",
      "gasUsed": "0x12535",
      "effectiveGasPrice": "0x62b85e900",
      "from": "0xa4e02339c313bf7fc9e70d5e0c5c2bfedf1b5327",
      "to": "0xe97b9105fc92f50de67ffcf4e0181991d5d2ac2c",
      "contractAddress": null
    },
    {
      "status": "0x1",
      "cumulativeGasUsed": "0x212964",
      "logs": [
        {
          "address": "0xe97b9105fc92f50de67ffcf4e0181991d5d2ac2c",
          "topics": [
            "0x604380c0749a3094c68bb6deb93fd106d6eae24eb2700dff9a2a9d27cfb98fb0"
          ],
          "data": "0x00000000000000000000000000000000000000000000000000000000000000030000000000000000000000000000000000000000000000000000000000000003",
          "blockHash": "0x06aea75f92c30da9f8f15be0df142aa2e18309e2f286e7bb544b927a65685e51",
          "blockNumber": "0xd221",
          "transactionHash": "0xcfc04d56f9d975caa3ea9d1ffa8d8adca9ec2b67df774ba866370c81f8003aa9",
          "transactionIndex": "0x6",
          "logIndex": "0x6",
          "removed": false
        }
      ],
      "logsBloom": "0x00000000000000000000000000000800000000000000000000000000000000000000000000000000000000000000000000000000000000000000000000000000000000000008000000000000000000000000000000000000000000000090000000000000000000000000000000000000000000000000000000000000000000000000000000000000000000000000000000000000000000000000000000000000000000000000000000000000000000000000000000000000000000000000000000000000000000000000000000000000000000000000000000000010000000000004000000000000000000000000000000000000000000000000000000000000",
      "type": "0x2",
      "transactionHash": "0xcfc04d56f9d975caa3ea9d1ffa8d8adca9ec2b67df774ba866370c81f8003aa9",
      "transactionIndex": "0x6",
      "blockHash": "0x06aea75f92c30da9f8f15be0df142aa2e18309e2f286e7bb544b927a65685e51",
      "blockNumber": "0xd221",
      "gasUsed": "0x6bf1",
      "effectiveGasPrice": "0x62b85e900",
      "from": "0xa4e02339c313bf7fc9e70d5e0c5c2bfedf1b5327",
      "to": "0xe97b9105fc92f50de67ffcf4e0181991d5d2ac2c",
      "contractAddress": null
    }
  ],
  "libraries": [],
  "pending": [],
  "returns": {},
  "timestamp": 1759083609523,
  "chain": 83055,
  "commit": "d6cfc9b"
}